{
  "contractName": "NFT",
  "abi": [
    {
      "inputs": [
        {
          "internalType": "string",
          "name": "_name",
          "type": "string"
        },
        {
          "internalType": "string",
          "name": "_symbol",
          "type": "string"
        },
        {
          "internalType": "string",
          "name": "_initBaseURI",
          "type": "string"
        },
        {
          "internalType": "address[]",
          "name": "_payees",
          "type": "address[]"
        },
        {
          "internalType": "uint256[]",
          "name": "_shares",
          "type": "uint256[]"
        }
      ],
      "stateMutability": "payable",
      "type": "constructor"
    },
    {
      "anonymous": false,
      "inputs": [
        {
          "indexed": true,
          "internalType": "address",
          "name": "owner",
          "type": "address"
        },
        {
          "indexed": true,
          "internalType": "address",
          "name": "approved",
          "type": "address"
        },
        {
          "indexed": true,
          "internalType": "uint256",
          "name": "tokenId",
          "type": "uint256"
        }
      ],
      "name": "Approval",
      "type": "event"
    },
    {
      "anonymous": false,
      "inputs": [
        {
          "indexed": true,
          "internalType": "address",
          "name": "owner",
          "type": "address"
        },
        {
          "indexed": true,
          "internalType": "address",
          "name": "operator",
          "type": "address"
        },
        {
          "indexed": false,
          "internalType": "bool",
          "name": "approved",
          "type": "bool"
        }
      ],
      "name": "ApprovalForAll",
      "type": "event"
    },
    {
      "anonymous": false,
      "inputs": [
        {
          "indexed": true,
          "internalType": "address",
          "name": "previousOwner",
          "type": "address"
        },
        {
          "indexed": true,
          "internalType": "address",
          "name": "newOwner",
          "type": "address"
        }
      ],
      "name": "OwnershipTransferred",
      "type": "event"
    },
    {
      "anonymous": false,
      "inputs": [
        {
          "indexed": false,
          "internalType": "address",
          "name": "account",
          "type": "address"
        },
        {
          "indexed": false,
          "internalType": "uint256",
          "name": "shares",
          "type": "uint256"
        }
      ],
      "name": "PayeeAdded",
      "type": "event"
    },
    {
      "anonymous": false,
      "inputs": [
        {
          "indexed": false,
          "internalType": "address",
          "name": "from",
          "type": "address"
        },
        {
          "indexed": false,
          "internalType": "uint256",
          "name": "amount",
          "type": "uint256"
        }
      ],
      "name": "PaymentReceived",
      "type": "event"
    },
    {
      "anonymous": false,
      "inputs": [
        {
          "indexed": false,
          "internalType": "address",
          "name": "to",
          "type": "address"
        },
        {
          "indexed": false,
          "internalType": "uint256",
          "name": "amount",
          "type": "uint256"
        }
      ],
      "name": "PaymentReleased",
      "type": "event"
    },
    {
      "anonymous": false,
      "inputs": [
        {
          "indexed": true,
          "internalType": "address",
          "name": "from",
          "type": "address"
        },
        {
          "indexed": true,
          "internalType": "address",
          "name": "to",
          "type": "address"
        },
        {
          "indexed": true,
          "internalType": "uint256",
          "name": "tokenId",
          "type": "uint256"
        }
      ],
      "name": "Transfer",
      "type": "event"
    },
    {
      "inputs": [],
      "name": "MAX_MINT_AMOUNT",
      "outputs": [
        {
          "internalType": "uint256",
          "name": "",
          "type": "uint256"
        }
      ],
      "stateMutability": "view",
      "type": "function"
    },
    {
      "inputs": [],
      "name": "TOTAL_AIRDROP_AMOUNT",
      "outputs": [
        {
          "internalType": "uint256",
          "name": "",
          "type": "uint256"
        }
      ],
      "stateMutability": "view",
      "type": "function"
    },
    {
      "inputs": [],
      "name": "TOTAL_REVERSED",
      "outputs": [
        {
          "internalType": "uint256",
          "name": "",
          "type": "uint256"
        }
      ],
      "stateMutability": "view",
      "type": "function"
    },
    {
      "inputs": [],
      "name": "airdrop_claimed",
      "outputs": [
        {
          "internalType": "uint256",
          "name": "",
          "type": "uint256"
        }
      ],
      "stateMutability": "view",
      "type": "function"
    },
    {
      "inputs": [
        {
          "internalType": "address",
          "name": "",
          "type": "address"
        }
      ],
      "name": "airdroppedList",
      "outputs": [
        {
          "internalType": "bool",
          "name": "",
          "type": "bool"
        }
      ],
      "stateMutability": "view",
      "type": "function"
    },
    {
      "inputs": [],
      "name": "all_whitelist",
      "outputs": [
        {
          "internalType": "bool",
          "name": "",
          "type": "bool"
        }
      ],
      "stateMutability": "view",
      "type": "function"
    },
    {
      "inputs": [
        {
          "internalType": "address",
          "name": "to",
          "type": "address"
        },
        {
          "internalType": "uint256",
          "name": "tokenId",
          "type": "uint256"
        }
      ],
      "name": "approve",
      "outputs": [],
      "stateMutability": "nonpayable",
      "type": "function"
    },
    {
      "inputs": [
        {
          "internalType": "address",
          "name": "owner",
          "type": "address"
        }
      ],
      "name": "balanceOf",
      "outputs": [
        {
          "internalType": "uint256",
          "name": "",
          "type": "uint256"
        }
      ],
      "stateMutability": "view",
      "type": "function"
    },
    {
      "inputs": [],
      "name": "baseExtension",
      "outputs": [
        {
          "internalType": "string",
          "name": "",
          "type": "string"
        }
      ],
      "stateMutability": "view",
      "type": "function"
    },
    {
      "inputs": [],
      "name": "baseURI",
      "outputs": [
        {
          "internalType": "string",
          "name": "",
          "type": "string"
        }
      ],
      "stateMutability": "view",
      "type": "function"
    },
    {
      "inputs": [],
      "name": "cost",
      "outputs": [
        {
          "internalType": "uint256",
          "name": "",
          "type": "uint256"
        }
      ],
      "stateMutability": "view",
      "type": "function"
    },
    {
      "inputs": [
        {
          "internalType": "uint256",
          "name": "tokenId",
          "type": "uint256"
        }
      ],
      "name": "getApproved",
      "outputs": [
        {
          "internalType": "address",
          "name": "",
          "type": "address"
        }
      ],
      "stateMutability": "view",
      "type": "function"
    },
    {
      "inputs": [
        {
          "internalType": "address",
          "name": "owner",
          "type": "address"
        },
        {
          "internalType": "address",
          "name": "operator",
          "type": "address"
        }
      ],
      "name": "isApprovedForAll",
      "outputs": [
        {
          "internalType": "bool",
          "name": "",
          "type": "bool"
        }
      ],
      "stateMutability": "view",
      "type": "function"
    },
    {
      "inputs": [],
      "name": "maxSupply",
      "outputs": [
        {
          "internalType": "uint256",
          "name": "",
          "type": "uint256"
        }
      ],
      "stateMutability": "view",
      "type": "function"
    },
    {
      "inputs": [],
      "name": "name",
      "outputs": [
        {
          "internalType": "string",
          "name": "",
          "type": "string"
        }
      ],
      "stateMutability": "view",
      "type": "function"
    },
    {
      "inputs": [],
      "name": "owner",
      "outputs": [
        {
          "internalType": "address",
          "name": "",
          "type": "address"
        }
      ],
      "stateMutability": "view",
      "type": "function"
    },
    {
      "inputs": [
        {
          "internalType": "uint256",
          "name": "tokenId",
          "type": "uint256"
        }
      ],
      "name": "ownerOf",
      "outputs": [
        {
          "internalType": "address",
          "name": "",
          "type": "address"
        }
      ],
      "stateMutability": "view",
      "type": "function"
    },
    {
      "inputs": [],
      "name": "paused",
      "outputs": [
        {
          "internalType": "bool",
          "name": "",
          "type": "bool"
        }
      ],
      "stateMutability": "view",
      "type": "function"
    },
    {
      "inputs": [
        {
          "internalType": "uint256",
          "name": "index",
          "type": "uint256"
        }
      ],
      "name": "payee",
      "outputs": [
        {
          "internalType": "address",
          "name": "",
          "type": "address"
        }
      ],
      "stateMutability": "view",
      "type": "function"
    },
    {
      "inputs": [],
      "name": "payments",
      "outputs": [
        {
          "internalType": "address payable",
          "name": "",
          "type": "address"
        }
      ],
      "stateMutability": "view",
      "type": "function"
    },
    {
      "inputs": [
        {
          "internalType": "address payable",
          "name": "account",
          "type": "address"
        }
      ],
      "name": "release",
      "outputs": [],
      "stateMutability": "nonpayable",
      "type": "function"
    },
    {
      "inputs": [
        {
          "internalType": "address",
          "name": "account",
          "type": "address"
        }
      ],
      "name": "released",
      "outputs": [
        {
          "internalType": "uint256",
          "name": "",
          "type": "uint256"
        }
      ],
      "stateMutability": "view",
      "type": "function"
    },
    {
      "inputs": [],
      "name": "renounceOwnership",
      "outputs": [],
      "stateMutability": "nonpayable",
      "type": "function"
    },
    {
      "inputs": [],
      "name": "reserved_claimed",
      "outputs": [
        {
          "internalType": "uint256",
          "name": "",
          "type": "uint256"
        }
      ],
      "stateMutability": "view",
      "type": "function"
    },
    {
      "inputs": [
        {
          "internalType": "address",
          "name": "from",
          "type": "address"
        },
        {
          "internalType": "address",
          "name": "to",
          "type": "address"
        },
        {
          "internalType": "uint256",
          "name": "tokenId",
          "type": "uint256"
        }
      ],
      "name": "safeTransferFrom",
      "outputs": [],
      "stateMutability": "nonpayable",
      "type": "function"
    },
    {
      "inputs": [
        {
          "internalType": "address",
          "name": "from",
          "type": "address"
        },
        {
          "internalType": "address",
          "name": "to",
          "type": "address"
        },
        {
          "internalType": "uint256",
          "name": "tokenId",
          "type": "uint256"
        },
        {
          "internalType": "bytes",
          "name": "_data",
          "type": "bytes"
        }
      ],
      "name": "safeTransferFrom",
      "outputs": [],
      "stateMutability": "nonpayable",
      "type": "function"
    },
    {
      "inputs": [
        {
          "internalType": "address",
          "name": "operator",
          "type": "address"
        },
        {
          "internalType": "bool",
          "name": "approved",
          "type": "bool"
        }
      ],
      "name": "setApprovalForAll",
      "outputs": [],
      "stateMutability": "nonpayable",
      "type": "function"
    },
    {
      "inputs": [
        {
          "internalType": "address",
          "name": "account",
          "type": "address"
        }
      ],
      "name": "shares",
      "outputs": [
        {
          "internalType": "uint256",
          "name": "",
          "type": "uint256"
        }
      ],
      "stateMutability": "view",
      "type": "function"
    },
    {
      "inputs": [
        {
          "internalType": "bytes4",
          "name": "interfaceId",
          "type": "bytes4"
        }
      ],
      "name": "supportsInterface",
      "outputs": [
        {
          "internalType": "bool",
          "name": "",
          "type": "bool"
        }
      ],
      "stateMutability": "view",
      "type": "function"
    },
    {
      "inputs": [],
      "name": "symbol",
      "outputs": [
        {
          "internalType": "string",
          "name": "",
          "type": "string"
        }
      ],
      "stateMutability": "view",
      "type": "function"
    },
    {
      "inputs": [
        {
          "internalType": "uint256",
          "name": "index",
          "type": "uint256"
        }
      ],
      "name": "tokenByIndex",
      "outputs": [
        {
          "internalType": "uint256",
          "name": "",
          "type": "uint256"
        }
      ],
      "stateMutability": "view",
      "type": "function"
    },
    {
      "inputs": [
        {
          "internalType": "address",
          "name": "owner",
          "type": "address"
        },
        {
          "internalType": "uint256",
          "name": "index",
          "type": "uint256"
        }
      ],
      "name": "tokenOfOwnerByIndex",
      "outputs": [
        {
          "internalType": "uint256",
          "name": "",
          "type": "uint256"
        }
      ],
      "stateMutability": "view",
      "type": "function"
    },
    {
      "inputs": [],
      "name": "totalReleased",
      "outputs": [
        {
          "internalType": "uint256",
          "name": "",
          "type": "uint256"
        }
      ],
      "stateMutability": "view",
      "type": "function"
    },
    {
      "inputs": [],
      "name": "totalShares",
      "outputs": [
        {
          "internalType": "uint256",
          "name": "",
          "type": "uint256"
        }
      ],
      "stateMutability": "view",
      "type": "function"
    },
    {
      "inputs": [],
      "name": "totalSupply",
      "outputs": [
        {
          "internalType": "uint256",
          "name": "",
          "type": "uint256"
        }
      ],
      "stateMutability": "view",
      "type": "function"
    },
    {
      "inputs": [
        {
          "internalType": "address",
          "name": "from",
          "type": "address"
        },
        {
          "internalType": "address",
          "name": "to",
          "type": "address"
        },
        {
          "internalType": "uint256",
          "name": "tokenId",
          "type": "uint256"
        }
      ],
      "name": "transferFrom",
      "outputs": [],
      "stateMutability": "nonpayable",
      "type": "function"
    },
    {
      "inputs": [
        {
          "internalType": "address",
          "name": "newOwner",
          "type": "address"
        }
      ],
      "name": "transferOwnership",
      "outputs": [],
      "stateMutability": "nonpayable",
      "type": "function"
    },
    {
      "inputs": [
        {
          "internalType": "address",
          "name": "",
          "type": "address"
        }
      ],
      "name": "whitelisted",
      "outputs": [
        {
          "internalType": "bool",
          "name": "",
          "type": "bool"
        }
      ],
      "stateMutability": "view",
      "type": "function"
    },
    {
      "stateMutability": "payable",
      "type": "receive"
    },
    {
      "inputs": [
        {
          "internalType": "address",
          "name": "_to",
          "type": "address"
        },
        {
          "internalType": "uint256",
          "name": "_mintAmount",
          "type": "uint256"
        }
      ],
      "name": "mint",
      "outputs": [],
      "stateMutability": "payable",
      "type": "function"
    },
    {
      "inputs": [],
      "name": "airdrop",
      "outputs": [],
      "stateMutability": "nonpayable",
      "type": "function"
    },
    {
      "inputs": [
        {
          "internalType": "address",
          "name": "_to",
          "type": "address"
        },
        {
          "internalType": "uint256",
          "name": "_mintAmount",
          "type": "uint256"
        }
      ],
      "name": "mint_by_team",
      "outputs": [],
      "stateMutability": "nonpayable",
      "type": "function"
    },
    {
      "inputs": [
        {
          "internalType": "address",
          "name": "_owner",
          "type": "address"
        }
      ],
      "name": "walletOfOwner",
      "outputs": [
        {
          "internalType": "uint256[]",
          "name": "",
          "type": "uint256[]"
        }
      ],
      "stateMutability": "view",
      "type": "function"
    },
    {
      "inputs": [
        {
          "internalType": "uint256",
          "name": "tokenId",
          "type": "uint256"
        }
      ],
      "name": "tokenURI",
      "outputs": [
        {
          "internalType": "string",
          "name": "",
          "type": "string"
        }
      ],
      "stateMutability": "view",
      "type": "function"
    },
    {
      "inputs": [
        {
          "internalType": "uint256",
          "name": "_newCost",
          "type": "uint256"
        }
      ],
      "name": "setCost",
      "outputs": [],
      "stateMutability": "nonpayable",
      "type": "function"
    },
    {
      "inputs": [
        {
          "internalType": "bool",
          "name": "_state",
          "type": "bool"
        }
      ],
      "name": "setAllWhitelist",
      "outputs": [],
      "stateMutability": "nonpayable",
      "type": "function"
    },
    {
      "inputs": [
        {
          "internalType": "uint256",
          "name": "_newmaxMintAmount",
          "type": "uint256"
        }
      ],
      "name": "setmaxMintAmount",
      "outputs": [],
      "stateMutability": "nonpayable",
      "type": "function"
    },
    {
      "inputs": [
        {
          "internalType": "string",
          "name": "_newBaseURI",
          "type": "string"
        }
      ],
      "name": "setBaseURI",
      "outputs": [],
      "stateMutability": "nonpayable",
      "type": "function"
    },
    {
      "inputs": [
        {
          "internalType": "string",
          "name": "_newBaseExtension",
          "type": "string"
        }
      ],
      "name": "setBaseExtension",
      "outputs": [],
      "stateMutability": "nonpayable",
      "type": "function"
    },
    {
      "inputs": [
        {
          "internalType": "bool",
          "name": "_state",
          "type": "bool"
        }
      ],
      "name": "pause",
      "outputs": [],
      "stateMutability": "nonpayable",
      "type": "function"
    },
    {
      "inputs": [
        {
          "internalType": "address",
          "name": "_user",
          "type": "address"
        }
      ],
      "name": "whitelistUser",
      "outputs": [],
      "stateMutability": "nonpayable",
      "type": "function"
    },
    {
      "inputs": [
        {
          "internalType": "address[]",
          "name": "_user",
          "type": "address[]"
        }
      ],
      "name": "whitelistUsers",
      "outputs": [],
      "stateMutability": "nonpayable",
      "type": "function"
    },
    {
      "inputs": [
        {
          "internalType": "address",
          "name": "_user",
          "type": "address"
        }
      ],
      "name": "removeWhitelistUser",
      "outputs": [],
      "stateMutability": "nonpayable",
      "type": "function"
    },
    {
      "inputs": [
        {
          "internalType": "address[]",
          "name": "_user",
          "type": "address[]"
        }
      ],
      "name": "removeWhitelistUsers",
      "outputs": [],
      "stateMutability": "nonpayable",
      "type": "function"
    },
    {
      "inputs": [],
      "name": "balance",
      "outputs": [
        {
          "internalType": "uint256",
          "name": "",
          "type": "uint256"
        }
      ],
      "stateMutability": "view",
      "type": "function"
    }
  ],
  "bytecode": "0x60c06040526005608081905264173539b7b760d91b60a0908152620000289160119190620003be565b5068056bc75e2d6310000060125561271060135560148055600060158190556016556101f460178190556018556019805461ffff60a01b1916905560405162003be9388190039081908339810160408190526200008591620005df565b818186868160009080519060200190620000a1929190620003be565b508051620000b7906001906020840190620003be565b505050620000d4620000ce620001c860201b60201c565b620001cc565b8051825114620001015760405162461bcd60e51b8152600401620000f89062000754565b60405180910390fd5b6000825111620001255760405162461bcd60e51b8152600401620000f890620007f1565b60005b8251811015620001a957620001948382815181106200015757634e487b7160e01b600052603260045260246000fd5b60200260200101518383815181106200018057634e487b7160e01b600052603260045260246000fd5b60200260200101516200021e60201b60201c565b80620001a08162000909565b91505062000128565b505050620001bd836200035060201b60201c565b505050505062000953565b3390565b600a80546001600160a01b038381166001600160a01b0319831681179093556040519116919082907f8be0079c531659141344cd1fd0a4f28419497f9722a3daafe3b4186f6b6457e090600090a35050565b6001600160a01b038216620002475760405162461bcd60e51b8152600401620000f890620006d3565b600081116200026a5760405162461bcd60e51b8152600401620000f89062000828565b6001600160a01b0382166000908152600d602052604090205415620002a35760405162461bcd60e51b8152600401620000f890620007a6565b600f8054600181019091557f8d1108e10bcb7c27dddfc02ed9d693a074039d026cf4ea4240b40f7d581ac8020180546001600160a01b0319166001600160a01b0384169081179091556000908152600d60205260409020819055600b546200030d908290620008b1565b600b556040517f40c340f65e17194d14ddddb073d3c9f888e3cb52b5aae0c6c7706b4fbc905fac90620003449084908490620006ba565b60405180910390a15050565b6200035a620001c8565b6001600160a01b03166200036d620003af565b6001600160a01b031614620003965760405162461bcd60e51b8152600401620000f8906200071f565b8051620003ab906010906020840190620003be565b5050565b600a546001600160a01b031690565b828054620003cc90620008cc565b90600052602060002090601f016020900481019282620003f057600085556200043b565b82601f106200040b57805160ff19168380011785556200043b565b828001600101855582156200043b579182015b828111156200043b5782518255916020019190600101906200041e565b50620004499291506200044d565b5090565b5b808211156200044957600081556001016200044e565b600082601f83011262000475578081fd5b815160206200048e62000488836200088b565b6200085f565b8281528181019085830183850287018401881015620004ab578586fd5b855b85811015620004e05781516001600160a01b0381168114620004cd578788fd5b84529284019290840190600101620004ad565b5090979650505050505050565b600082601f830112620004fe578081fd5b815160206200051162000488836200088b565b82815281810190858301838502870184018810156200052e578586fd5b855b85811015620004e05781518452928401929084019060010162000530565b600082601f8301126200055f578081fd5b81516001600160401b038111156200057b576200057b6200093d565b602062000591601f8301601f191682016200085f565b8281528582848701011115620005a5578384fd5b835b83811015620005c4578581018301518282018401528201620005a7565b83811115620005d557848385840101525b5095945050505050565b600080600080600060a08688031215620005f7578081fd5b85516001600160401b03808211156200060e578283fd5b6200061c89838a016200054e565b9650602088015191508082111562000632578283fd5b6200064089838a016200054e565b9550604088015191508082111562000656578283fd5b6200066489838a016200054e565b945060608801519150808211156200067a578283fd5b6200068889838a0162000464565b935060808801519150808211156200069e578283fd5b50620006ad88828901620004ed565b9150509295509295909350565b6001600160a01b03929092168252602082015260400190565b6020808252602c908201527f5061796d656e7453706c69747465723a206163636f756e74206973207468652060408201526b7a65726f206164647265737360a01b606082015260800190565b6020808252818101527f4f776e61626c653a2063616c6c6572206973206e6f7420746865206f776e6572604082015260600190565b60208082526032908201527f5061796d656e7453706c69747465723a2070617965657320616e6420736861726040820152710cae640d8cadccee8d040dad2e6dac2e8c6d60731b606082015260800190565b6020808252602b908201527f5061796d656e7453706c69747465723a206163636f756e7420616c726561647960408201526a206861732073686172657360a81b606082015260800190565b6020808252601a908201527f5061796d656e7453706c69747465723a206e6f20706179656573000000000000604082015260600190565b6020808252601d908201527f5061796d656e7453706c69747465723a20736861726573206172652030000000604082015260600190565b6040518181016001600160401b03811182821017156200088357620008836200093d565b604052919050565b60006001600160401b03821115620008a757620008a76200093d565b5060209081020190565b60008219821115620008c757620008c762000927565b500190565b600281046001821680620008e157607f821691505b602082108114156200090357634e487b7160e01b600052602260045260246000fd5b50919050565b600060001982141562000920576200092062000927565b5060010190565b634e487b7160e01b600052601160045260246000fd5b634e487b7160e01b600052604160045260246000fd5b61328680620009636000396000f3fe6080604052600436106103385760003560e01c806370a08231116101ab578063bb7ca3f8116100f7578063da3ef23f11610095578063e985e9c51161006f578063e985e9c514610927578063edec5f2714610947578063f2fde38b14610967578063fa9b7018146109875761037f565b8063da3ef23f146108dd578063da4fdf15146108fd578063e33b7de3146109125761037f565b8063c87b56dd116100d1578063c87b56dd14610868578063ce7c2ac214610888578063d5abeb01146108a8578063d936547e146108bd5761037f565b8063bb7ca3f814610829578063c074ca431461083e578063c6682862146108535761037f565b80639852595c11610164578063b2e131111161013e578063b2e13111146107b4578063b69ef8a8146107d4578063b7b31139146107e9578063b88d4fde146108095761037f565b80639852595c1461075f578063a22cb4651461077f578063a6d23e101461079f5761037f565b806370a08231146106c0578063715018a6146106e05780637f00c7a6146106f55780638b83209b146107155780638da5cb5b1461073557806395d89b411461074a5761037f565b80633884d635116102855780634a4c560d116102235780635c975abb116101fd5780635c975abb146106565780636352211e1461066b5780636462de4e1461068b5780636c0360eb146106ab5761037f565b80634a4c560d146105f65780634f6ccce71461061657806355f804b3146106365761037f565b806342842e0e1161025f57806342842e0e1461056957806342ffcdf114610589578063438b6300146105a957806344a0d68a146105d65761037f565b80633884d6351461052c5780633a98ef391461054157806340c10f19146105565761037f565b806312c690e5116102f257806319165587116102cc57806319165587146104ac57806323b872dd146104cc5780632f745c59146104ec57806330cc7ae01461050c5761037f565b806312c690e51461046d57806313faede61461048257806318160ddd146104975761037f565b8062eac28a1461038457806301ffc9a7146103af57806302329a29146103dc57806306fdde03146103fe578063081812fc14610420578063095ea7b31461044d5761037f565b3661037f577f6ef95f06320e7a25a04a175ca677b7052bdd97131872c2192525a629f51be77061036661099c565b34604051610375929190612870565b60405180910390a1005b600080fd5b34801561039057600080fd5b506103996109a0565b6040516103a691906130ac565b60405180910390f35b3480156103bb57600080fd5b506103cf6103ca3660046126d5565b6109a6565b6040516103a6919061290a565b3480156103e857600080fd5b506103fc6103f73660046126bb565b6109d3565b005b34801561040a57600080fd5b50610413610a39565b6040516103a69190612915565b34801561042c57600080fd5b5061044061043b366004612753565b610acb565b6040516103a6919061285c565b34801561045957600080fd5b506103fc6104683660046125dd565b610b0e565b34801561047957600080fd5b506103cf610ba6565b34801561048e57600080fd5b50610399610bb6565b3480156104a357600080fd5b50610399610bbc565b3480156104b857600080fd5b506103fc6104c7366004612498565b610bc2565b3480156104d857600080fd5b506103fc6104e73660046124ec565b610d07565b3480156104f857600080fd5b506103996105073660046125dd565b610d3f565b34801561051857600080fd5b506103fc610527366004612498565b610d91565b34801561053857600080fd5b506103fc610df1565b34801561054d57600080fd5b50610399610f01565b6103fc6105643660046125dd565b610f07565b34801561057557600080fd5b506103fc6105843660046124ec565b611022565b34801561059557600080fd5b506103fc6105a43660046125dd565b61103d565b3480156105b557600080fd5b506105c96105c4366004612498565b6110f2565b6040516103a691906128c6565b3480156105e257600080fd5b506103fc6105f1366004612753565b6111b0565b34801561060257600080fd5b506103fc610611366004612498565b6111f4565b34801561062257600080fd5b50610399610631366004612753565b611257565b34801561064257600080fd5b506103fc61065136600461270d565b6112b2565b34801561066257600080fd5b506103cf611308565b34801561067757600080fd5b50610440610686366004612753565b611318565b34801561069757600080fd5b506103cf6106a6366004612498565b61134d565b3480156106b757600080fd5b50610413611362565b3480156106cc57600080fd5b506103996106db366004612498565b6113f0565b3480156106ec57600080fd5b506103fc611434565b34801561070157600080fd5b506103fc610710366004612753565b61147f565b34801561072157600080fd5b50610440610730366004612753565b6114c3565b34801561074157600080fd5b50610440611501565b34801561075657600080fd5b50610413611510565b34801561076b57600080fd5b5061039961077a366004612498565b61151f565b34801561078b57600080fd5b506103fc61079a3660046125a9565b61153a565b3480156107ab57600080fd5b50610440611608565b3480156107c057600080fd5b506103fc6107cf366004612608565b611617565b3480156107e057600080fd5b506103996116c2565b3480156107f557600080fd5b506103fc6108043660046126bb565b6116c6565b34801561081557600080fd5b506103fc61082436600461252c565b611723565b34801561083557600080fd5b5061039961175c565b34801561084a57600080fd5b50610399611762565b34801561085f57600080fd5b50610413611768565b34801561087457600080fd5b50610413610883366004612753565b611775565b34801561089457600080fd5b506103996108a3366004612498565b6117fb565b3480156108b457600080fd5b50610399611816565b3480156108c957600080fd5b506103cf6108d8366004612498565b61181c565b3480156108e957600080fd5b506103fc6108f836600461270d565b611831565b34801561090957600080fd5b50610399611883565b34801561091e57600080fd5b50610399611889565b34801561093357600080fd5b506103cf6109423660046124b4565b61188f565b34801561095357600080fd5b506103fc610962366004612608565b6118bd565b34801561097357600080fd5b506103fc610982366004612498565b61196b565b34801561099357600080fd5b506103996119dc565b3390565b60155481565b60006001600160e01b0319821663780e9d6360e01b14806109cb57506109cb826119e2565b90505b919050565b6109db61099c565b6001600160a01b03166109ec611501565b6001600160a01b031614610a1b5760405162461bcd60e51b8152600401610a1290612e8a565b60405180910390fd5b60198054911515600160a01b0260ff60a01b19909216919091179055565b606060008054610a4890613179565b80601f0160208091040260200160405190810160405280929190818152602001828054610a7490613179565b8015610ac15780601f10610a9657610100808354040283529160200191610ac1565b820191906000526020600020905b815481529060010190602001808311610aa457829003601f168201915b5050505050905090565b6000610ad682611a22565b610af25760405162461bcd60e51b8152600401610a1290612e3e565b506000908152600460205260409020546001600160a01b031690565b6000610b1982611318565b9050806001600160a01b0316836001600160a01b03161415610b4d5760405162461bcd60e51b8152600401610a1290612f57565b806001600160a01b0316610b5f61099c565b6001600160a01b03161480610b7b5750610b7b8161094261099c565b610b975760405162461bcd60e51b8152600401610a1290612d19565b610ba18383611a3f565b505050565b601954600160a81b900460ff1681565b60125481565b60085490565b6001600160a01b0381166000908152600d6020526040902054610bf75760405162461bcd60e51b8152600401610a1290612ad2565b6000600c5447610c0791906130eb565b6001600160a01b0383166000908152600e6020908152604080832054600b54600d909352908320549394509192610c3e9085613117565b610c489190613103565b610c529190613136565b905080610c715760405162461bcd60e51b8152600401610a1290612c73565b6001600160a01b0383166000908152600e6020526040902054610c959082906130eb565b6001600160a01b0384166000908152600e6020526040902055600c54610cbc9082906130eb565b600c55610cc98382611aad565b7fdf20fd1e76bc69d672e4814fafb2c449bba3a5369d8359adf9e05e6fde87b0568382604051610cfa929190612870565b60405180910390a1505050565b610d18610d1261099c565b82611b49565b610d345760405162461bcd60e51b8152600401610a1290612f98565b610ba1838383611bce565b6000610d4a836113f0565b8210610d685760405162461bcd60e51b8152600401610a1290612958565b506001600160a01b03919091166000908152600660209081526040808320938352929052205490565b610d9961099c565b6001600160a01b0316610daa611501565b6001600160a01b031614610dd05760405162461bcd60e51b8152600401610a1290612e8a565b6001600160a01b03166000908152601a60205260409020805460ff19169055565b6000610dfb610bbc565b601954909150600160a01b900460ff1615610e285760405162461bcd60e51b8152600401610a129061308c565b336000908152601b602052604090205460ff1615610e585760405162461bcd60e51b8152600401610a1290612cec565b60175460155410610e7b5760405162461bcd60e51b8152600401610a1290613062565b336000908152601a602052604090205460ff1680610ea25750601954600160a81b900460ff165b610ebe5760405162461bcd60e51b8152600401610a1290612cbe565b610ed233610ecd8360016130eb565b611cfb565b336000908152601b60205260409020805460ff19166001908117909155601554610efb916130eb565b60155550565b600b5490565b6000610f11610bbc565b601954909150600160a01b900460ff1615610f3e5760405162461bcd60e51b8152600401610a129061308c565b60008211610f5e5760405162461bcd60e51b8152600401610a1290612fe9565b601454821115610f805760405162461bcd60e51b8152600401610a12906129a3565b81601254610f8e9190613117565b341015610fad5760405162461bcd60e51b8152600401610a1290612a9b565b601854601754601354610fc09190613136565b610fca9190613136565b610fd483836130eb565b1115610ff25760405162461bcd60e51b8152600401610a1290612928565b60015b82811161101c5761100a84610ecd83856130eb565b80611014816131b4565b915050610ff5565b50505050565b610ba183838360405180602001604052806000815250611723565b61104561099c565b6001600160a01b0316611056611501565b6001600160a01b03161461107c5760405162461bcd60e51b8152600401610a1290612e8a565b6000611086610bbc565b90506000821161109557600080fd5b601854826016546110a691906130eb565b11156110b157600080fd5b60015b8281116110db576110c984610ecd83856130eb565b806110d3816131b4565b9150506110b4565b50816016546110ea91906130eb565b601655505050565b606060006110ff836113f0565b905060008167ffffffffffffffff81111561112a57634e487b7160e01b600052604160045260246000fd5b604051908082528060200260200182016040528015611153578160200160208202803683370190505b50905060005b828110156111a85761116b8582610d3f565b82828151811061118b57634e487b7160e01b600052603260045260246000fd5b6020908102919091010152806111a0816131b4565b915050611159565b509392505050565b6111b861099c565b6001600160a01b03166111c9611501565b6001600160a01b0316146111ef5760405162461bcd60e51b8152600401610a1290612e8a565b601255565b6111fc61099c565b6001600160a01b031661120d611501565b6001600160a01b0316146112335760405162461bcd60e51b8152600401610a1290612e8a565b6001600160a01b03166000908152601a60205260409020805460ff19166001179055565b6000611261610bbc565b821061127f5760405162461bcd60e51b8152600401610a1290613016565b600882815481106112a057634e487b7160e01b600052603260045260246000fd5b90600052602060002001549050919050565b6112ba61099c565b6001600160a01b03166112cb611501565b6001600160a01b0316146112f15760405162461bcd60e51b8152600401610a1290612e8a565b8051611304906010906020840190612397565b5050565b601954600160a01b900460ff1681565b6000818152600260205260408120546001600160a01b0316806109cb5760405162461bcd60e51b8152600401610a1290612dc0565b601b6020526000908152604090205460ff1681565b6010805461136f90613179565b80601f016020809104026020016040519081016040528092919081815260200182805461139b90613179565b80156113e85780601f106113bd576101008083540402835291602001916113e8565b820191906000526020600020905b8154815290600101906020018083116113cb57829003601f168201915b505050505081565b60006001600160a01b0382166114185760405162461bcd60e51b8152600401610a1290612d76565b506001600160a01b031660009081526003602052604090205490565b61143c61099c565b6001600160a01b031661144d611501565b6001600160a01b0316146114735760405162461bcd60e51b8152600401610a1290612e8a565b61147d6000611d15565b565b61148761099c565b6001600160a01b0316611498611501565b6001600160a01b0316146114be5760405162461bcd60e51b8152600401610a1290612e8a565b601455565b6000600f82815481106114e657634e487b7160e01b600052603260045260246000fd5b6000918252602090912001546001600160a01b031692915050565b600a546001600160a01b031690565b606060018054610a4890613179565b6001600160a01b03166000908152600e602052604090205490565b61154261099c565b6001600160a01b0316826001600160a01b031614156115735760405162461bcd60e51b8152600401610a1290612b5c565b806005600061158061099c565b6001600160a01b03908116825260208083019390935260409182016000908120918716808252919093529120805460ff1916921515929092179091556115c461099c565b6001600160a01b03167f17307eab39ab6107e8899845ad3d59bd9653f200f220920489ca2b5937696c31836040516115fc919061290a565b60405180910390a35050565b6019546001600160a01b031681565b61161f61099c565b6001600160a01b0316611630611501565b6001600160a01b0316146116565760405162461bcd60e51b8152600401610a1290612e8a565b60005b815181101561130457600082828151811061168457634e487b7160e01b600052603260045260246000fd5b6020908102919091018101516001600160a01b03166000908152601a90915260409020805460ff1916905550806116ba816131b4565b915050611659565b4790565b6116ce61099c565b6001600160a01b03166116df611501565b6001600160a01b0316146117055760405162461bcd60e51b8152600401610a1290612e8a565b60198054911515600160a81b0260ff60a81b19909216919091179055565b61173461172e61099c565b83611b49565b6117505760405162461bcd60e51b8152600401610a1290612f98565b61101c84848484611d67565b60175481565b60165481565b6011805461136f90613179565b606061178082611a22565b61179c5760405162461bcd60e51b8152600401610a1290612f08565b60006117a6611d9a565b905060008151116117c657604051806020016040528060008152506117f4565b806117d084611da9565b60116040516020016117e493929190612797565b6040516020818303038152906040525b9392505050565b6001600160a01b03166000908152600d602052604090205490565b60135481565b601a6020526000908152604090205460ff1681565b61183961099c565b6001600160a01b031661184a611501565b6001600160a01b0316146118705760405162461bcd60e51b8152600401610a1290612e8a565b8051611304906011906020840190612397565b60185481565b600c5490565b6001600160a01b03918216600090815260056020908152604080832093909416825291909152205460ff1690565b6118c561099c565b6001600160a01b03166118d6611501565b6001600160a01b0316146118fc5760405162461bcd60e51b8152600401610a1290612e8a565b60005b815181101561130457600082828151811061192a57634e487b7160e01b600052603260045260246000fd5b6020908102919091018101516001600160a01b03166000908152601a90915260409020805460ff191660011790555080611963816131b4565b9150506118ff565b61197361099c565b6001600160a01b0316611984611501565b6001600160a01b0316146119aa5760405162461bcd60e51b8152600401610a1290612e8a565b6001600160a01b0381166119d05760405162461bcd60e51b8152600401610a1290612a1e565b6119d981611d15565b50565b60145481565b60006001600160e01b031982166380ac58cd60e01b1480611a1357506001600160e01b03198216635b5e139f60e01b145b806109cb57506109cb82611ec4565b6000908152600260205260409020546001600160a01b0316151590565b600081815260046020526040902080546001600160a01b0319166001600160a01b0384169081179091558190611a7482611318565b6001600160a01b03167f8c5be1e5ebec7d5bd14f71427d1e84f3dd0314c0f7b2291e5b200ac8c7c3b92560405160405180910390a45050565b80471015611acd5760405162461bcd60e51b8152600401610a1290612bf0565b6000826001600160a01b031682604051611ae690612859565b60006040518083038185875af1925050503d8060008114611b23576040519150601f19603f3d011682016040523d82523d6000602084013e611b28565b606091505b5050905080610ba15760405162461bcd60e51b8152600401610a1290612b93565b6000611b5482611a22565b611b705760405162461bcd60e51b8152600401610a1290612c27565b6000611b7b83611318565b9050806001600160a01b0316846001600160a01b03161480611bb65750836001600160a01b0316611bab84610acb565b6001600160a01b0316145b80611bc65750611bc6818561188f565b949350505050565b826001600160a01b0316611be182611318565b6001600160a01b031614611c075760405162461bcd60e51b8152600401610a1290612ebf565b6001600160a01b038216611c2d5760405162461bcd60e51b8152600401610a1290612b18565b611c38838383611edd565b611c43600082611a3f565b6001600160a01b0383166000908152600360205260408120805460019290611c6c908490613136565b90915550506001600160a01b0382166000908152600360205260408120805460019290611c9a9084906130eb565b909155505060008181526002602052604080822080546001600160a01b0319166001600160a01b0386811691821790925591518493918716917fddf252ad1be2c89b69c2b068fc378daa952ba7f163c4a11628f55a4df523b3ef91a4505050565b611304828260405180602001604052806000815250611f66565b600a80546001600160a01b038381166001600160a01b0319831681179093556040519116919082907f8be0079c531659141344cd1fd0a4f28419497f9722a3daafe3b4186f6b6457e090600090a35050565b611d72848484611bce565b611d7e84848484611f99565b61101c5760405162461bcd60e51b8152600401610a12906129cc565b606060108054610a4890613179565b606081611dce57506040805180820190915260018152600360fc1b60208201526109ce565b8160005b8115611df85780611de2816131b4565b9150611df19050600a83613103565b9150611dd2565b60008167ffffffffffffffff811115611e2157634e487b7160e01b600052604160045260246000fd5b6040519080825280601f01601f191660200182016040528015611e4b576020820181803683370190505b5090505b8415611bc657611e60600183613136565b9150611e6d600a866131cf565b611e789060306130eb565b60f81b818381518110611e9b57634e487b7160e01b600052603260045260246000fd5b60200101906001600160f81b031916908160001a905350611ebd600a86613103565b9450611e4f565b6001600160e01b031981166301ffc9a760e01b14919050565b611ee8838383610ba1565b6001600160a01b038316611f0457611eff816120b4565b611f27565b816001600160a01b0316836001600160a01b031614611f2757611f2783826120f8565b6001600160a01b038216611f4357611f3e81612195565b610ba1565b826001600160a01b0316826001600160a01b031614610ba157610ba1828261226e565b611f7083836122b2565b611f7d6000848484611f99565b610ba15760405162461bcd60e51b8152600401610a12906129cc565b6000611fad846001600160a01b0316612391565b156120a957836001600160a01b031663150b7a02611fc961099c565b8786866040518563ffffffff1660e01b8152600401611feb9493929190612889565b602060405180830381600087803b15801561200557600080fd5b505af1925050508015612035575060408051601f3d908101601f19168201909252612032918101906126f1565b60015b61208f573d808015612063576040519150601f19603f3d011682016040523d82523d6000602084013e612068565b606091505b5080516120875760405162461bcd60e51b8152600401610a12906129cc565b805181602001fd5b6001600160e01b031916630a85bd0160e11b149050611bc6565b506001949350505050565b600880546000838152600960205260408120829055600182018355919091527ff3f7a9fe364faab93b216da50a3214154f22a0a2b415b23a84c8169e8b636ee30155565b60006001612105846113f0565b61210f9190613136565b600083815260076020526040902054909150808214612162576001600160a01b03841660009081526006602090815260408083208584528252808320548484528184208190558352600790915290208190555b5060009182526007602090815260408084208490556001600160a01b039094168352600681528383209183525290812055565b6008546000906121a790600190613136565b600083815260096020526040812054600880549394509092849081106121dd57634e487b7160e01b600052603260045260246000fd5b90600052602060002001549050806008838154811061220c57634e487b7160e01b600052603260045260246000fd5b600091825260208083209091019290925582815260099091526040808220849055858252812055600880548061225257634e487b7160e01b600052603160045260246000fd5b6001900381819060005260206000200160009055905550505050565b6000612279836113f0565b6001600160a01b039093166000908152600660209081526040808320868452825280832085905593825260079052919091209190915550565b6001600160a01b0382166122d85760405162461bcd60e51b8152600401610a1290612e09565b6122e181611a22565b156122fe5760405162461bcd60e51b8152600401610a1290612a64565b61230a60008383611edd565b6001600160a01b03821660009081526003602052604081208054600192906123339084906130eb565b909155505060008181526002602052604080822080546001600160a01b0319166001600160a01b03861690811790915590518392907fddf252ad1be2c89b69c2b068fc378daa952ba7f163c4a11628f55a4df523b3ef908290a45050565b3b151590565b8280546123a390613179565b90600052602060002090601f0160209004810192826123c5576000855561240b565b82601f106123de57805160ff191683800117855561240b565b8280016001018555821561240b579182015b8281111561240b5782518255916020019190600101906123f0565b5061241792915061241b565b5090565b5b80821115612417576000815560010161241c565b600067ffffffffffffffff83111561244a5761244a61320f565b61245d601f8401601f19166020016130b5565b905082815283838301111561247157600080fd5b828260208301376000602084830101529392505050565b803580151581146109ce57600080fd5b6000602082840312156124a9578081fd5b81356117f481613225565b600080604083850312156124c6578081fd5b82356124d181613225565b915060208301356124e181613225565b809150509250929050565b600080600060608486031215612500578081fd5b833561250b81613225565b9250602084013561251b81613225565b929592945050506040919091013590565b60008060008060808587031215612541578081fd5b843561254c81613225565b9350602085013561255c81613225565b925060408501359150606085013567ffffffffffffffff81111561257e578182fd5b8501601f8101871361258e578182fd5b61259d87823560208401612430565b91505092959194509250565b600080604083850312156125bb578182fd5b82356125c681613225565b91506125d460208401612488565b90509250929050565b600080604083850312156125ef578182fd5b82356125fa81613225565b946020939093013593505050565b6000602080838503121561261a578182fd5b823567ffffffffffffffff80821115612631578384fd5b818501915085601f830112612644578384fd5b8135818111156126565761265661320f565b83810291506126668483016130b5565b8181528481019084860184860187018a1015612680578788fd5b8795505b838610156126ae578035945061269985613225565b84835260019590950194918601918601612684565b5098975050505050505050565b6000602082840312156126cc578081fd5b6117f482612488565b6000602082840312156126e6578081fd5b81356117f48161323a565b600060208284031215612702578081fd5b81516117f48161323a565b60006020828403121561271e578081fd5b813567ffffffffffffffff811115612734578182fd5b8201601f81018413612744578182fd5b611bc684823560208401612430565b600060208284031215612764578081fd5b5035919050565b6000815180845261278381602086016020860161314d565b601f01601f19169290920160200192915050565b6000845160206127aa8285838a0161314d565b8551918401916127bd8184848a0161314d565b85549201918390600281046001808316806127d957607f831692505b8583108114156127f757634e487b7160e01b88526022600452602488fd5b80801561280b576001811461281c57612848565b60ff19851688528388019550612848565b6128258b6130df565b895b858110156128405781548a820152908401908801612827565b505083880195505b50939b9a5050505050505050505050565b90565b6001600160a01b0391909116815260200190565b6001600160a01b03929092168252602082015260400190565b6001600160a01b03858116825284166020820152604081018390526080606082018190526000906128bc9083018461276b565b9695505050505050565b6020808252825182820181905260009190848201906040850190845b818110156128fe578351835292840192918401916001016128e2565b50909695505050505050565b901515815260200190565b6000602082526117f4602083018461276b565b602080825260169082015275195e18d95959081b5a5b9d18589b1948185b5bdd5b9d60521b604082015260600190565b6020808252602b908201527f455243373231456e756d657261626c653a206f776e657220696e646578206f7560408201526a74206f6620626f756e647360a81b606082015260800190565b6020808252600f908201526e185b1b081b999d1cc81b5a5b9d1959608a1b604082015260600190565b60208082526032908201527f4552433732313a207472616e7366657220746f206e6f6e20455243373231526560408201527131b2b4bb32b91034b6b83632b6b2b73a32b960711b606082015260800190565b60208082526026908201527f4f776e61626c653a206e6577206f776e657220697320746865207a65726f206160408201526564647265737360d01b606082015260800190565b6020808252601c908201527f4552433732313a20746f6b656e20616c7265616479206d696e74656400000000604082015260600190565b6020808252601b908201527f616d6f756e74206f662076616c7565206e6f7420636f72726563740000000000604082015260600190565b60208082526026908201527f5061796d656e7453706c69747465723a206163636f756e7420686173206e6f2060408201526573686172657360d01b606082015260800190565b60208082526024908201527f4552433732313a207472616e7366657220746f20746865207a65726f206164646040820152637265737360e01b606082015260800190565b60208082526019908201527f4552433732313a20617070726f766520746f2063616c6c657200000000000000604082015260600190565b6020808252603a908201527f416464726573733a20756e61626c6520746f2073656e642076616c75652c207260408201527f6563697069656e74206d61792068617665207265766572746564000000000000606082015260800190565b6020808252601d908201527f416464726573733a20696e73756666696369656e742062616c616e6365000000604082015260600190565b6020808252602c908201527f4552433732313a206f70657261746f7220717565727920666f72206e6f6e657860408201526b34b9ba32b73a103a37b5b2b760a11b606082015260800190565b6020808252602b908201527f5061796d656e7453706c69747465723a206163636f756e74206973206e6f742060408201526a191d59481c185e5b595b9d60aa1b606082015260800190565b6020808252601490820152731b9bdd081a5b881d1a19481dda1a5d195b1a5cdd60621b604082015260600190565b602080825260139082015272185b1c9958591e4819dbdd081d1a19481b999d606a1b604082015260600190565b60208082526038908201527f4552433732313a20617070726f76652063616c6c6572206973206e6f74206f7760408201527f6e6572206e6f7220617070726f76656420666f7220616c6c0000000000000000606082015260800190565b6020808252602a908201527f4552433732313a2062616c616e636520717565727920666f7220746865207a65604082015269726f206164647265737360b01b606082015260800190565b60208082526029908201527f4552433732313a206f776e657220717565727920666f72206e6f6e657869737460408201526832b73a103a37b5b2b760b91b606082015260800190565b6020808252818101527f4552433732313a206d696e7420746f20746865207a65726f2061646472657373604082015260600190565b6020808252602c908201527f4552433732313a20617070726f76656420717565727920666f72206e6f6e657860408201526b34b9ba32b73a103a37b5b2b760a11b606082015260800190565b6020808252818101527f4f776e61626c653a2063616c6c6572206973206e6f7420746865206f776e6572604082015260600190565b60208082526029908201527f4552433732313a207472616e73666572206f6620746f6b656e2074686174206960408201526839903737ba1037bbb760b91b606082015260800190565b6020808252602f908201527f4552433732314d657461646174613a2055524920717565727920666f72206e6f60408201526e3732bc34b9ba32b73a103a37b5b2b760891b606082015260800190565b60208082526021908201527f4552433732313a20617070726f76616c20746f2063757272656e74206f776e656040820152603960f91b606082015260800190565b60208082526031908201527f4552433732313a207472616e736665722063616c6c6572206973206e6f74206f6040820152701ddb995c881b9bdc88185c1c1c9bdd9959607a1b606082015260800190565b6020808252601390820152726e65656420746f20626520706f73697469766560681b604082015260600190565b6020808252602c908201527f455243373231456e756d657261626c653a20676c6f62616c20696e646578206f60408201526b7574206f6620626f756e647360a01b606082015260800190565b60208082526010908201526f185b1b081b999d1cc818db185a5b595960821b604082015260600190565b6020808252600690820152651c185d5cd95960d21b604082015260600190565b90815260200190565b60405181810167ffffffffffffffff811182821017156130d7576130d761320f565b604052919050565b60009081526020902090565b600082198211156130fe576130fe6131e3565b500190565b600082613112576131126131f9565b500490565b6000816000190483118215151615613131576131316131e3565b500290565b600082821015613148576131486131e3565b500390565b60005b83811015613168578181015183820152602001613150565b8381111561101c5750506000910152565b60028104600182168061318d57607f821691505b602082108114156131ae57634e487b7160e01b600052602260045260246000fd5b50919050565b60006000198214156131c8576131c86131e3565b5060010190565b6000826131de576131de6131f9565b500690565b634e487b7160e01b600052601160045260246000fd5b634e487b7160e01b600052601260045260246000fd5b634e487b7160e01b600052604160045260246000fd5b6001600160a01b03811681146119d957600080fd5b6001600160e01b0319811681146119d957600080fdfea264697066735822122031c05132c87d382a00fa51d31eef5c4a6dfff7cd7589b95fd210e65634ebdb8b64736f6c63430008000033",
  "immutableReferences": {},
  "source": "// SPDX-License-Identifier: GPL-3.0\r\n\r\n// Created by HashLips\r\n// The Nerdy Coder Clones\r\n\r\npragma solidity ^0.8.0;\r\n\r\nimport \"@openzeppelin/contracts/token/ERC721/extensions/ERC721Enumerable.sol\";\r\nimport \"@openzeppelin/contracts/access/Ownable.sol\";\r\nimport \"@openzeppelin/contracts/finance/PaymentSplitter.sol\";\r\n\r\ncontract NFT is ERC721Enumerable, Ownable, PaymentSplitter {\r\n  using Strings for uint256;\r\n\r\n  string public baseURI;\r\n  string public baseExtension = \".json\";\r\n  uint256 public cost = 100 ether;\r\n  uint256 public maxSupply = 10000;\r\n  uint256 public MAX_MINT_AMOUNT = 20;\r\n  uint256 public airdrop_claimed = 0;\r\n  uint256 public reserved_claimed = 0;\r\n  \r\n  uint256 public TOTAL_AIRDROP_AMOUNT = 500;\r\n  uint256 public TOTAL_REVERSED = 500;\r\n  address payable public payments;\r\n\r\n\r\n  bool public paused = false;\r\n  bool public all_whitelist = false;\r\n\r\n  mapping(address => bool) public whitelisted;\r\n  mapping (address => bool) public airdroppedList;\r\n  \r\n  constructor(\r\n    string memory _name,\r\n    string memory _symbol,\r\n    string memory _initBaseURI,\r\n    address[] memory _payees,\r\n    uint256[] memory _shares\r\n  ) ERC721(_name, _symbol) PaymentSplitter(_payees, _shares) payable {\r\n    setBaseURI(_initBaseURI);\r\n  }\r\n\r\n  // internal\r\n  function _baseURI() internal view virtual override returns (string memory) {\r\n    return baseURI;\r\n  }\r\n\r\n  // public\r\n  function mint(address _to, uint256 _mintAmount) public payable {\r\n    uint256 supply = totalSupply();\r\n    require(!paused, 'paused');\r\n    require(_mintAmount > 0, 'need to be positive');\r\n    require(_mintAmount <= MAX_MINT_AMOUNT, 'all nfts minted');\r\n    require(msg.value >= cost * _mintAmount, 'amount of value not correct');\r\n    require(supply + _mintAmount <= maxSupply - TOTAL_AIRDROP_AMOUNT - TOTAL_REVERSED, 'exceed mintable amount');\r\n\r\n    for (uint256 i = 1; i <= _mintAmount; i++) {\r\n      _safeMint(_to, supply + i);\r\n    }\r\n  }\r\n  \r\n    // public\r\n  function airdrop() public {\r\n    uint256 supply = totalSupply();\r\n    require(!paused, 'paused');\r\n    require(!airdroppedList[msg.sender], 'already got the nft');\r\n    require(airdrop_claimed < TOTAL_AIRDROP_AMOUNT, 'all nfts claimed');\r\n    require(whitelisted[msg.sender] || all_whitelist, 'not in the whitelist');\r\n\r\n     _safeMint(msg.sender, supply + 1);\r\n     airdroppedList[msg.sender] = true;\r\n     airdrop_claimed = airdrop_claimed + 1;\r\n  }\r\n  \r\n      // public\r\n  function mint_by_team(address _to, uint256 _mintAmount) public onlyOwner {\r\n    uint256 supply = totalSupply();\r\n    require(_mintAmount > 0);\r\n    require(reserved_claimed + _mintAmount <= TOTAL_REVERSED);\r\n\r\n    for (uint256 i = 1; i <= _mintAmount; i++) {\r\n      _safeMint(_to, supply + i);\r\n    }\r\n     reserved_claimed = reserved_claimed + _mintAmount;\r\n  }\r\n\r\n\r\n\r\n  function walletOfOwner(address _owner)\r\n    public\r\n    view\r\n    returns (uint256[] memory)\r\n  {\r\n    uint256 ownerTokenCount = balanceOf(_owner);\r\n    uint256[] memory tokenIds = new uint256[](ownerTokenCount);\r\n    for (uint256 i; i < ownerTokenCount; i++) {\r\n      tokenIds[i] = tokenOfOwnerByIndex(_owner, i);\r\n    }\r\n    return tokenIds;\r\n  }\r\n\r\n  function tokenURI(uint256 tokenId)\r\n    public\r\n    view\r\n    virtual\r\n    override\r\n    returns (string memory)\r\n  {\r\n    require(\r\n      _exists(tokenId),\r\n      \"ERC721Metadata: URI query for nonexistent token\"\r\n    );\r\n\r\n    string memory currentBaseURI = _baseURI();\r\n    return bytes(currentBaseURI).length > 0\r\n        ? string(abi.encodePacked(currentBaseURI, tokenId.toString(), baseExtension))\r\n        : \"\";\r\n  }\r\n\r\n  //only owner\r\n  function setCost(uint256 _newCost) public onlyOwner {\r\n    cost = _newCost;\r\n  }\r\n\r\n  //only owner\r\n  function setAllWhitelist(bool _state) public onlyOwner {\r\n    all_whitelist = _state;\r\n  }\r\n\r\n  function setmaxMintAmount(uint256 _newmaxMintAmount) public onlyOwner {\r\n    MAX_MINT_AMOUNT = _newmaxMintAmount;\r\n  }\r\n\r\n  function setBaseURI(string memory _newBaseURI) public onlyOwner {\r\n    baseURI = _newBaseURI;\r\n  }\r\n\r\n  function setBaseExtension(string memory _newBaseExtension) public onlyOwner {\r\n    baseExtension = _newBaseExtension;\r\n  }\r\n\r\n  function pause(bool _state) public onlyOwner {\r\n    paused = _state;\r\n  }\r\n \r\n function whitelistUser(address _user) public onlyOwner {\r\n    whitelisted[_user] = true;\r\n  }\r\n\r\n function whitelistUsers(address[] memory _user) public onlyOwner {\r\n    for (uint256 i; i < _user.length; i++) {\r\n      address user = _user[i];\r\n      whitelisted[user] = true;\r\n    }\r\n  }\r\n\r\n  function removeWhitelistUser(address _user) public onlyOwner {\r\n    whitelisted[_user] = false;\r\n  }\r\n\r\n  function removeWhitelistUsers(address[] memory _user) public onlyOwner {\r\n    for (uint256 i; i < _user.length; i++) {\r\n      address user = _user[i];\r\n      whitelisted[user] = false;\r\n    }\r\n  }\r\n  \r\n  function balance () public view returns (uint256)  {\r\n   return address(this).balance;\r\n  }\r\n}",
  "sourcePath": "/Users/timcheng/personal/nft-project/nft_ipfs_minter/contracts/NFT.sol",
  "compiler": {
    "name": "solc",
    "version": "0.8.0+commit.c7dfd78e.Emscripten.clang"
  },
  "schemaVersion": "3.4.4",
  "updatedAt": "2021-12-26T15:07:11.278Z",
  "devdoc": {
    "kind": "dev",
    "methods": {
      "approve(address,uint256)": {
        "details": "See {IERC721-approve}."
      },
      "balanceOf(address)": {
        "details": "See {IERC721-balanceOf}."
      },
      "getApproved(uint256)": {
        "details": "See {IERC721-getApproved}."
      },
      "isApprovedForAll(address,address)": {
        "details": "See {IERC721-isApprovedForAll}."
      },
      "name()": {
        "details": "See {IERC721Metadata-name}."
      },
      "owner()": {
        "details": "Returns the address of the current owner."
      },
      "ownerOf(uint256)": {
        "details": "See {IERC721-ownerOf}."
      },
      "payee(uint256)": {
        "details": "Getter for the address of the payee number `index`."
      },
      "release(address)": {
        "details": "Triggers a transfer to `account` of the amount of Ether they are owed, according to their percentage of the total shares and their previous withdrawals."
      },
      "released(address)": {
        "details": "Getter for the amount of Ether already released to a payee."
      },
      "renounceOwnership()": {
        "details": "Leaves the contract without owner. It will not be possible to call `onlyOwner` functions anymore. Can only be called by the current owner. NOTE: Renouncing ownership will leave the contract without an owner, thereby removing any functionality that is only available to the owner."
      },
      "safeTransferFrom(address,address,uint256)": {
        "details": "See {IERC721-safeTransferFrom}."
      },
      "safeTransferFrom(address,address,uint256,bytes)": {
        "details": "See {IERC721-safeTransferFrom}."
      },
      "setApprovalForAll(address,bool)": {
        "details": "See {IERC721-setApprovalForAll}."
      },
      "shares(address)": {
        "details": "Getter for the amount of shares held by an account."
      },
      "supportsInterface(bytes4)": {
        "details": "See {IERC165-supportsInterface}."
      },
      "symbol()": {
        "details": "See {IERC721Metadata-symbol}."
      },
      "tokenByIndex(uint256)": {
        "details": "See {IERC721Enumerable-tokenByIndex}."
      },
      "tokenOfOwnerByIndex(address,uint256)": {
        "details": "See {IERC721Enumerable-tokenOfOwnerByIndex}."
      },
      "tokenURI(uint256)": {
        "details": "See {IERC721Metadata-tokenURI}."
      },
      "totalReleased()": {
        "details": "Getter for the total amount of Ether already released."
      },
      "totalShares()": {
        "details": "Getter for the total shares held by payees."
      },
      "totalSupply()": {
        "details": "See {IERC721Enumerable-totalSupply}."
      },
      "transferFrom(address,address,uint256)": {
        "details": "See {IERC721-transferFrom}."
      },
      "transferOwnership(address)": {
        "details": "Transfers ownership of the contract to a new account (`newOwner`). Can only be called by the current owner."
      }
    },
    "version": 1
  },
  "userdoc": {
    "kind": "user",
    "methods": {},
    "version": 1
  },
  "db": {
    "callBytecode": {
      "id": "0xc0911b3e11957b2ebcb4f9390739f8adc5a1bf08d17ab107a0dfe334e41c0b5c"
    },
    "createBytecode": {
      "id": "0xd400808cc522b48f7464b61a03bda17a141860535a4ab7a03e22b4ae80deb3d2"
    },
    "contract": {
      "id": "0xa09b371c37098f05a003ea92e92d1618a113e3a20f0350f732ca3c4d638850ed"
    }
  }
}