{
  "contractName": "NFT",
  "abi": [
    {
      "inputs": [
        {
          "internalType": "string",
          "name": "_name",
          "type": "string"
        },
        {
          "internalType": "string",
          "name": "_symbol",
          "type": "string"
        },
        {
          "internalType": "string",
          "name": "_initBaseURI",
          "type": "string"
        },
        {
          "internalType": "address[]",
          "name": "_payees",
          "type": "address[]"
        },
        {
          "internalType": "uint256[]",
          "name": "_shares",
          "type": "uint256[]"
        }
      ],
      "stateMutability": "payable",
      "type": "constructor"
    },
    {
      "anonymous": false,
      "inputs": [
        {
          "indexed": true,
          "internalType": "address",
          "name": "owner",
          "type": "address"
        },
        {
          "indexed": true,
          "internalType": "address",
          "name": "approved",
          "type": "address"
        },
        {
          "indexed": true,
          "internalType": "uint256",
          "name": "tokenId",
          "type": "uint256"
        }
      ],
      "name": "Approval",
      "type": "event"
    },
    {
      "anonymous": false,
      "inputs": [
        {
          "indexed": true,
          "internalType": "address",
          "name": "owner",
          "type": "address"
        },
        {
          "indexed": true,
          "internalType": "address",
          "name": "operator",
          "type": "address"
        },
        {
          "indexed": false,
          "internalType": "bool",
          "name": "approved",
          "type": "bool"
        }
      ],
      "name": "ApprovalForAll",
      "type": "event"
    },
    {
      "anonymous": false,
      "inputs": [
        {
          "indexed": true,
          "internalType": "address",
          "name": "previousOwner",
          "type": "address"
        },
        {
          "indexed": true,
          "internalType": "address",
          "name": "newOwner",
          "type": "address"
        }
      ],
      "name": "OwnershipTransferred",
      "type": "event"
    },
    {
      "anonymous": false,
      "inputs": [
        {
          "indexed": false,
          "internalType": "address",
          "name": "account",
          "type": "address"
        },
        {
          "indexed": false,
          "internalType": "uint256",
          "name": "shares",
          "type": "uint256"
        }
      ],
      "name": "PayeeAdded",
      "type": "event"
    },
    {
      "anonymous": false,
      "inputs": [
        {
          "indexed": false,
          "internalType": "address",
          "name": "from",
          "type": "address"
        },
        {
          "indexed": false,
          "internalType": "uint256",
          "name": "amount",
          "type": "uint256"
        }
      ],
      "name": "PaymentReceived",
      "type": "event"
    },
    {
      "anonymous": false,
      "inputs": [
        {
          "indexed": false,
          "internalType": "address",
          "name": "to",
          "type": "address"
        },
        {
          "indexed": false,
          "internalType": "uint256",
          "name": "amount",
          "type": "uint256"
        }
      ],
      "name": "PaymentReleased",
      "type": "event"
    },
    {
      "anonymous": false,
      "inputs": [
        {
          "indexed": true,
          "internalType": "address",
          "name": "from",
          "type": "address"
        },
        {
          "indexed": true,
          "internalType": "address",
          "name": "to",
          "type": "address"
        },
        {
          "indexed": true,
          "internalType": "uint256",
          "name": "tokenId",
          "type": "uint256"
        }
      ],
      "name": "Transfer",
      "type": "event"
    },
    {
      "inputs": [],
      "name": "AIRDROP_AMOUNT",
      "outputs": [
        {
          "internalType": "uint256",
          "name": "",
          "type": "uint256"
        }
      ],
      "stateMutability": "view",
      "type": "function"
    },
    {
      "inputs": [],
      "name": "REVERSED",
      "outputs": [
        {
          "internalType": "uint256",
          "name": "",
          "type": "uint256"
        }
      ],
      "stateMutability": "view",
      "type": "function"
    },
    {
      "inputs": [],
      "name": "aidrop_amount",
      "outputs": [
        {
          "internalType": "uint256",
          "name": "",
          "type": "uint256"
        }
      ],
      "stateMutability": "view",
      "type": "function"
    },
    {
      "inputs": [
        {
          "internalType": "address",
          "name": "",
          "type": "address"
        }
      ],
      "name": "airdroppedList",
      "outputs": [
        {
          "internalType": "bool",
          "name": "",
          "type": "bool"
        }
      ],
      "stateMutability": "view",
      "type": "function"
    },
    {
      "inputs": [
        {
          "internalType": "address",
          "name": "to",
          "type": "address"
        },
        {
          "internalType": "uint256",
          "name": "tokenId",
          "type": "uint256"
        }
      ],
      "name": "approve",
      "outputs": [],
      "stateMutability": "nonpayable",
      "type": "function"
    },
    {
      "inputs": [
        {
          "internalType": "address",
          "name": "owner",
          "type": "address"
        }
      ],
      "name": "balanceOf",
      "outputs": [
        {
          "internalType": "uint256",
          "name": "",
          "type": "uint256"
        }
      ],
      "stateMutability": "view",
      "type": "function"
    },
    {
      "inputs": [],
      "name": "baseExtension",
      "outputs": [
        {
          "internalType": "string",
          "name": "",
          "type": "string"
        }
      ],
      "stateMutability": "view",
      "type": "function"
    },
    {
      "inputs": [],
      "name": "baseURI",
      "outputs": [
        {
          "internalType": "string",
          "name": "",
          "type": "string"
        }
      ],
      "stateMutability": "view",
      "type": "function"
    },
    {
      "inputs": [],
      "name": "cost",
      "outputs": [
        {
          "internalType": "uint256",
          "name": "",
          "type": "uint256"
        }
      ],
      "stateMutability": "view",
      "type": "function"
    },
    {
      "inputs": [
        {
          "internalType": "uint256",
          "name": "tokenId",
          "type": "uint256"
        }
      ],
      "name": "getApproved",
      "outputs": [
        {
          "internalType": "address",
          "name": "",
          "type": "address"
        }
      ],
      "stateMutability": "view",
      "type": "function"
    },
    {
      "inputs": [
        {
          "internalType": "address",
          "name": "owner",
          "type": "address"
        },
        {
          "internalType": "address",
          "name": "operator",
          "type": "address"
        }
      ],
      "name": "isApprovedForAll",
      "outputs": [
        {
          "internalType": "bool",
          "name": "",
          "type": "bool"
        }
      ],
      "stateMutability": "view",
      "type": "function"
    },
    {
      "inputs": [],
      "name": "maxMintAmount",
      "outputs": [
        {
          "internalType": "uint256",
          "name": "",
          "type": "uint256"
        }
      ],
      "stateMutability": "view",
      "type": "function"
    },
    {
      "inputs": [],
      "name": "maxSupply",
      "outputs": [
        {
          "internalType": "uint256",
          "name": "",
          "type": "uint256"
        }
      ],
      "stateMutability": "view",
      "type": "function"
    },
    {
      "inputs": [],
      "name": "name",
      "outputs": [
        {
          "internalType": "string",
          "name": "",
          "type": "string"
        }
      ],
      "stateMutability": "view",
      "type": "function"
    },
    {
      "inputs": [],
      "name": "owner",
      "outputs": [
        {
          "internalType": "address",
          "name": "",
          "type": "address"
        }
      ],
      "stateMutability": "view",
      "type": "function"
    },
    {
      "inputs": [
        {
          "internalType": "uint256",
          "name": "tokenId",
          "type": "uint256"
        }
      ],
      "name": "ownerOf",
      "outputs": [
        {
          "internalType": "address",
          "name": "",
          "type": "address"
        }
      ],
      "stateMutability": "view",
      "type": "function"
    },
    {
      "inputs": [],
      "name": "paused",
      "outputs": [
        {
          "internalType": "bool",
          "name": "",
          "type": "bool"
        }
      ],
      "stateMutability": "view",
      "type": "function"
    },
    {
      "inputs": [
        {
          "internalType": "uint256",
          "name": "index",
          "type": "uint256"
        }
      ],
      "name": "payee",
      "outputs": [
        {
          "internalType": "address",
          "name": "",
          "type": "address"
        }
      ],
      "stateMutability": "view",
      "type": "function"
    },
    {
      "inputs": [],
      "name": "payments",
      "outputs": [
        {
          "internalType": "address payable",
          "name": "",
          "type": "address"
        }
      ],
      "stateMutability": "view",
      "type": "function"
    },
    {
      "inputs": [
        {
          "internalType": "address payable",
          "name": "account",
          "type": "address"
        }
      ],
      "name": "release",
      "outputs": [],
      "stateMutability": "nonpayable",
      "type": "function"
    },
    {
      "inputs": [
        {
          "internalType": "address",
          "name": "account",
          "type": "address"
        }
      ],
      "name": "released",
      "outputs": [
        {
          "internalType": "uint256",
          "name": "",
          "type": "uint256"
        }
      ],
      "stateMutability": "view",
      "type": "function"
    },
    {
      "inputs": [],
      "name": "renounceOwnership",
      "outputs": [],
      "stateMutability": "nonpayable",
      "type": "function"
    },
    {
      "inputs": [],
      "name": "reserved",
      "outputs": [
        {
          "internalType": "uint256",
          "name": "",
          "type": "uint256"
        }
      ],
      "stateMutability": "view",
      "type": "function"
    },
    {
      "inputs": [
        {
          "internalType": "address",
          "name": "from",
          "type": "address"
        },
        {
          "internalType": "address",
          "name": "to",
          "type": "address"
        },
        {
          "internalType": "uint256",
          "name": "tokenId",
          "type": "uint256"
        }
      ],
      "name": "safeTransferFrom",
      "outputs": [],
      "stateMutability": "nonpayable",
      "type": "function"
    },
    {
      "inputs": [
        {
          "internalType": "address",
          "name": "from",
          "type": "address"
        },
        {
          "internalType": "address",
          "name": "to",
          "type": "address"
        },
        {
          "internalType": "uint256",
          "name": "tokenId",
          "type": "uint256"
        },
        {
          "internalType": "bytes",
          "name": "_data",
          "type": "bytes"
        }
      ],
      "name": "safeTransferFrom",
      "outputs": [],
      "stateMutability": "nonpayable",
      "type": "function"
    },
    {
      "inputs": [
        {
          "internalType": "address",
          "name": "operator",
          "type": "address"
        },
        {
          "internalType": "bool",
          "name": "approved",
          "type": "bool"
        }
      ],
      "name": "setApprovalForAll",
      "outputs": [],
      "stateMutability": "nonpayable",
      "type": "function"
    },
    {
      "inputs": [
        {
          "internalType": "address",
          "name": "account",
          "type": "address"
        }
      ],
      "name": "shares",
      "outputs": [
        {
          "internalType": "uint256",
          "name": "",
          "type": "uint256"
        }
      ],
      "stateMutability": "view",
      "type": "function"
    },
    {
      "inputs": [
        {
          "internalType": "bytes4",
          "name": "interfaceId",
          "type": "bytes4"
        }
      ],
      "name": "supportsInterface",
      "outputs": [
        {
          "internalType": "bool",
          "name": "",
          "type": "bool"
        }
      ],
      "stateMutability": "view",
      "type": "function"
    },
    {
      "inputs": [],
      "name": "symbol",
      "outputs": [
        {
          "internalType": "string",
          "name": "",
          "type": "string"
        }
      ],
      "stateMutability": "view",
      "type": "function"
    },
    {
      "inputs": [
        {
          "internalType": "uint256",
          "name": "index",
          "type": "uint256"
        }
      ],
      "name": "tokenByIndex",
      "outputs": [
        {
          "internalType": "uint256",
          "name": "",
          "type": "uint256"
        }
      ],
      "stateMutability": "view",
      "type": "function"
    },
    {
      "inputs": [
        {
          "internalType": "address",
          "name": "owner",
          "type": "address"
        },
        {
          "internalType": "uint256",
          "name": "index",
          "type": "uint256"
        }
      ],
      "name": "tokenOfOwnerByIndex",
      "outputs": [
        {
          "internalType": "uint256",
          "name": "",
          "type": "uint256"
        }
      ],
      "stateMutability": "view",
      "type": "function"
    },
    {
      "inputs": [],
      "name": "totalReleased",
      "outputs": [
        {
          "internalType": "uint256",
          "name": "",
          "type": "uint256"
        }
      ],
      "stateMutability": "view",
      "type": "function"
    },
    {
      "inputs": [],
      "name": "totalShares",
      "outputs": [
        {
          "internalType": "uint256",
          "name": "",
          "type": "uint256"
        }
      ],
      "stateMutability": "view",
      "type": "function"
    },
    {
      "inputs": [],
      "name": "totalSupply",
      "outputs": [
        {
          "internalType": "uint256",
          "name": "",
          "type": "uint256"
        }
      ],
      "stateMutability": "view",
      "type": "function"
    },
    {
      "inputs": [
        {
          "internalType": "address",
          "name": "from",
          "type": "address"
        },
        {
          "internalType": "address",
          "name": "to",
          "type": "address"
        },
        {
          "internalType": "uint256",
          "name": "tokenId",
          "type": "uint256"
        }
      ],
      "name": "transferFrom",
      "outputs": [],
      "stateMutability": "nonpayable",
      "type": "function"
    },
    {
      "inputs": [
        {
          "internalType": "address",
          "name": "newOwner",
          "type": "address"
        }
      ],
      "name": "transferOwnership",
      "outputs": [],
      "stateMutability": "nonpayable",
      "type": "function"
    },
    {
      "inputs": [
        {
          "internalType": "address",
          "name": "",
          "type": "address"
        }
      ],
      "name": "whitelisted",
      "outputs": [
        {
          "internalType": "bool",
          "name": "",
          "type": "bool"
        }
      ],
      "stateMutability": "view",
      "type": "function"
    },
    {
      "stateMutability": "payable",
      "type": "receive"
    },
    {
      "inputs": [
        {
          "internalType": "address",
          "name": "_to",
          "type": "address"
        },
        {
          "internalType": "uint256",
          "name": "_mintAmount",
          "type": "uint256"
        }
      ],
      "name": "mint",
      "outputs": [],
      "stateMutability": "payable",
      "type": "function"
    },
    {
      "inputs": [],
      "name": "airdrop",
      "outputs": [],
      "stateMutability": "nonpayable",
      "type": "function"
    },
    {
      "inputs": [
        {
          "internalType": "address",
          "name": "_to",
          "type": "address"
        },
        {
          "internalType": "uint256",
          "name": "_mintAmount",
          "type": "uint256"
        }
      ],
      "name": "mint_by_team",
      "outputs": [],
      "stateMutability": "nonpayable",
      "type": "function"
    },
    {
      "inputs": [
        {
          "internalType": "address",
          "name": "_owner",
          "type": "address"
        }
      ],
      "name": "walletOfOwner",
      "outputs": [
        {
          "internalType": "uint256[]",
          "name": "",
          "type": "uint256[]"
        }
      ],
      "stateMutability": "view",
      "type": "function"
    },
    {
      "inputs": [
        {
          "internalType": "uint256",
          "name": "tokenId",
          "type": "uint256"
        }
      ],
      "name": "tokenURI",
      "outputs": [
        {
          "internalType": "string",
          "name": "",
          "type": "string"
        }
      ],
      "stateMutability": "view",
      "type": "function"
    },
    {
      "inputs": [
        {
          "internalType": "uint256",
          "name": "_newCost",
          "type": "uint256"
        }
      ],
      "name": "setCost",
      "outputs": [],
      "stateMutability": "nonpayable",
      "type": "function"
    },
    {
      "inputs": [
        {
          "internalType": "uint256",
          "name": "_newmaxMintAmount",
          "type": "uint256"
        }
      ],
      "name": "setmaxMintAmount",
      "outputs": [],
      "stateMutability": "nonpayable",
      "type": "function"
    },
    {
      "inputs": [
        {
          "internalType": "string",
          "name": "_newBaseURI",
          "type": "string"
        }
      ],
      "name": "setBaseURI",
      "outputs": [],
      "stateMutability": "nonpayable",
      "type": "function"
    },
    {
      "inputs": [
        {
          "internalType": "string",
          "name": "_newBaseExtension",
          "type": "string"
        }
      ],
      "name": "setBaseExtension",
      "outputs": [],
      "stateMutability": "nonpayable",
      "type": "function"
    },
    {
      "inputs": [
        {
          "internalType": "bool",
          "name": "_state",
          "type": "bool"
        }
      ],
      "name": "pause",
      "outputs": [],
      "stateMutability": "nonpayable",
      "type": "function"
    },
    {
      "inputs": [
        {
          "internalType": "address",
          "name": "_user",
          "type": "address"
        }
      ],
      "name": "whitelistUser",
      "outputs": [],
      "stateMutability": "nonpayable",
      "type": "function"
    },
    {
      "inputs": [
        {
          "internalType": "address",
          "name": "_user",
          "type": "address"
        }
      ],
      "name": "removeWhitelistUser",
      "outputs": [],
      "stateMutability": "nonpayable",
      "type": "function"
    },
    {
      "inputs": [],
      "name": "balance",
      "outputs": [
        {
          "internalType": "uint256",
          "name": "",
          "type": "uint256"
        }
      ],
      "stateMutability": "view",
      "type": "function"
    }
  ],
  "bytecode": "0x60c06040526005608081905264173539b7b760d91b60a0908152620000289160119190620003c0565b50678ac7230489e80000601255612710601355601480556103e860158190556101f460168190556017919091556018556019805460ff60a01b19169055604051620036be388190039081908339810160408190526200008791620005e1565b818186868160009080519060200190620000a3929190620003c0565b508051620000b9906001906020840190620003c0565b505050620000d6620000d0620001ca60201b60201c565b620001ce565b8051825114620001035760405162461bcd60e51b8152600401620000fa9062000756565b60405180910390fd5b6000825111620001275760405162461bcd60e51b8152600401620000fa90620007f3565b60005b8251811015620001ab57620001968382815181106200015957634e487b7160e01b600052603260045260246000fd5b60200260200101518383815181106200018257634e487b7160e01b600052603260045260246000fd5b60200260200101516200022060201b60201c565b80620001a2816200090b565b9150506200012a565b505050620001bf836200035260201b60201c565b505050505062000955565b3390565b600a80546001600160a01b038381166001600160a01b0319831681179093556040519116919082907f8be0079c531659141344cd1fd0a4f28419497f9722a3daafe3b4186f6b6457e090600090a35050565b6001600160a01b038216620002495760405162461bcd60e51b8152600401620000fa90620006d5565b600081116200026c5760405162461bcd60e51b8152600401620000fa906200082a565b6001600160a01b0382166000908152600d602052604090205415620002a55760405162461bcd60e51b8152600401620000fa90620007a8565b600f8054600181019091557f8d1108e10bcb7c27dddfc02ed9d693a074039d026cf4ea4240b40f7d581ac8020180546001600160a01b0319166001600160a01b0384169081179091556000908152600d60205260409020819055600b546200030f908290620008b3565b600b556040517f40c340f65e17194d14ddddb073d3c9f888e3cb52b5aae0c6c7706b4fbc905fac90620003469084908490620006bc565b60405180910390a15050565b6200035c620001ca565b6001600160a01b03166200036f620003b1565b6001600160a01b031614620003985760405162461bcd60e51b8152600401620000fa9062000721565b8051620003ad906010906020840190620003c0565b5050565b600a546001600160a01b031690565b828054620003ce90620008ce565b90600052602060002090601f016020900481019282620003f257600085556200043d565b82601f106200040d57805160ff19168380011785556200043d565b828001600101855582156200043d579182015b828111156200043d57825182559160200191906001019062000420565b506200044b9291506200044f565b5090565b5b808211156200044b576000815560010162000450565b600082601f83011262000477578081fd5b81516020620004906200048a836200088d565b62000861565b8281528181019085830183850287018401881015620004ad578586fd5b855b85811015620004e25781516001600160a01b0381168114620004cf578788fd5b84529284019290840190600101620004af565b5090979650505050505050565b600082601f83011262000500578081fd5b81516020620005136200048a836200088d565b828152818101908583018385028701840188101562000530578586fd5b855b85811015620004e25781518452928401929084019060010162000532565b600082601f83011262000561578081fd5b81516001600160401b038111156200057d576200057d6200093f565b602062000593601f8301601f1916820162000861565b8281528582848701011115620005a7578384fd5b835b83811015620005c6578581018301518282018401528201620005a9565b83811115620005d757848385840101525b5095945050505050565b600080600080600060a08688031215620005f9578081fd5b85516001600160401b038082111562000610578283fd5b6200061e89838a0162000550565b9650602088015191508082111562000634578283fd5b6200064289838a0162000550565b9550604088015191508082111562000658578283fd5b6200066689838a0162000550565b945060608801519150808211156200067c578283fd5b6200068a89838a0162000466565b93506080880151915080821115620006a0578283fd5b50620006af88828901620004ef565b9150509295509295909350565b6001600160a01b03929092168252602082015260400190565b6020808252602c908201527f5061796d656e7453706c69747465723a206163636f756e74206973207468652060408201526b7a65726f206164647265737360a01b606082015260800190565b6020808252818101527f4f776e61626c653a2063616c6c6572206973206e6f7420746865206f776e6572604082015260600190565b60208082526032908201527f5061796d656e7453706c69747465723a2070617965657320616e6420736861726040820152710cae640d8cadccee8d040dad2e6dac2e8c6d60731b606082015260800190565b6020808252602b908201527f5061796d656e7453706c69747465723a206163636f756e7420616c726561647960408201526a206861732073686172657360a81b606082015260800190565b6020808252601a908201527f5061796d656e7453706c69747465723a206e6f20706179656573000000000000604082015260600190565b6020808252601d908201527f5061796d656e7453706c69747465723a20736861726573206172652030000000604082015260600190565b6040518181016001600160401b03811182821017156200088557620008856200093f565b604052919050565b60006001600160401b03821115620008a957620008a96200093f565b5060209081020190565b60008219821115620008c957620008c962000929565b500190565b600281046001821680620008e357607f821691505b602082108114156200090557634e487b7160e01b600052602260045260246000fd5b50919050565b600060001982141562000922576200092262000929565b5060010190565b634e487b7160e01b600052601160045260246000fd5b634e487b7160e01b600052604160045260246000fd5b612d5980620009656000396000f3fe6080604052600436106102cd5760003560e01c80636352211e11610175578063b69ef8a8116100dc578063d5abeb0111610095578063e33b7de31161006f578063e33b7de314610852578063e985e9c514610867578063f2fde38b14610887578063fe60d12c146108a757610314565b8063d5abeb01146107fd578063d936547e14610812578063da3ef23f1461083257610314565b8063b69ef8a81461075e578063b88d4fde14610773578063c46d6f0314610793578063c6682862146107a8578063c87b56dd146107bd578063ce7c2ac2146107dd57610314565b80638b83209b1161012e5780638b83209b146106bf5780638da5cb5b146106df57806395d89b41146106f45780639852595c14610709578063a22cb46514610729578063a6d23e101461074957610314565b80636352211e146106155780636462de4e146106355780636c0360eb1461065557806370a082311461066a578063715018a61461068a5780637f00c7a61461069f57610314565b80632f745c591161023457806342ffcdf1116101ed5780634a4c560d116101c75780634a4c560d146105a05780634f6ccce7146105c057806355f804b3146105e05780635c975abb1461060057610314565b806342ffcdf114610533578063438b63001461055357806344a0d68a1461058057610314565b80632f745c591461049657806330cc7ae0146104b65780633884d635146104d65780633a98ef39146104eb57806340c10f191461050057806342842e0e1461051357610314565b806313faede61161028657806313faede61461040257806318160ddd14610417578063191655871461042c578063239c70ae1461044c57806323b872dd146104615780632b5b68721461048157610314565b806301ffc9a71461031957806302329a291461034f57806306fdde0314610371578063081812fc14610393578063095ea7b3146103c05780630d2ee9dc146103e057610314565b36610314577f6ef95f06320e7a25a04a175ca677b7052bdd97131872c2192525a629f51be7706102fb6108bc565b3460405161030a9291906124a2565b60405180910390a1005b600080fd5b34801561032557600080fd5b50610339610334366004612307565b6108c0565b604051610346919061253c565b60405180910390f35b34801561035b57600080fd5b5061036f61036a3660046122ed565b6108ed565b005b34801561037d57600080fd5b50610386610953565b6040516103469190612547565b34801561039f57600080fd5b506103b36103ae366004612385565b6109e5565b604051610346919061248e565b3480156103cc57600080fd5b5061036f6103db3660046122c2565b610a28565b3480156103ec57600080fd5b506103f5610ac0565b6040516103469190612ba9565b34801561040e57600080fd5b506103f5610ac6565b34801561042357600080fd5b506103f5610acc565b34801561043857600080fd5b5061036f61044736600461217d565b610ad2565b34801561045857600080fd5b506103f5610c17565b34801561046d57600080fd5b5061036f61047c3660046121d1565b610c1d565b34801561048d57600080fd5b506103f5610c55565b3480156104a257600080fd5b506103f56104b13660046122c2565b610c5b565b3480156104c257600080fd5b5061036f6104d136600461217d565b610cad565b3480156104e257600080fd5b5061036f610d0d565b3480156104f757600080fd5b506103f5610db4565b61036f61050e3660046122c2565b610dba565b34801561051f57600080fd5b5061036f61052e3660046121d1565b610eb2565b34801561053f57600080fd5b5061036f61054e3660046122c2565b610ecd565b34801561055f57600080fd5b5061057361056e36600461217d565b610f81565b60405161034691906124f8565b34801561058c57600080fd5b5061036f61059b366004612385565b61103f565b3480156105ac57600080fd5b5061036f6105bb36600461217d565b611083565b3480156105cc57600080fd5b506103f56105db366004612385565b6110e6565b3480156105ec57600080fd5b5061036f6105fb36600461233f565b611141565b34801561060c57600080fd5b50610339611197565b34801561062157600080fd5b506103b3610630366004612385565b6111a7565b34801561064157600080fd5b5061033961065036600461217d565b6111dc565b34801561066157600080fd5b506103866111f1565b34801561067657600080fd5b506103f561068536600461217d565b61127f565b34801561069657600080fd5b5061036f6112c3565b3480156106ab57600080fd5b5061036f6106ba366004612385565b61130e565b3480156106cb57600080fd5b506103b36106da366004612385565b611352565b3480156106eb57600080fd5b506103b3611390565b34801561070057600080fd5b5061038661139f565b34801561071557600080fd5b506103f561072436600461217d565b6113ae565b34801561073557600080fd5b5061036f61074436600461228e565b6113c9565b34801561075557600080fd5b506103b3611497565b34801561076a57600080fd5b506103f56114a6565b34801561077f57600080fd5b5061036f61078e366004612211565b6114aa565b34801561079f57600080fd5b506103f56114e3565b3480156107b457600080fd5b506103866114e9565b3480156107c957600080fd5b506103866107d8366004612385565b6114f6565b3480156107e957600080fd5b506103f56107f836600461217d565b61157c565b34801561080957600080fd5b506103f5611597565b34801561081e57600080fd5b5061033961082d36600461217d565b61159d565b34801561083e57600080fd5b5061036f61084d36600461233f565b6115b2565b34801561085e57600080fd5b506103f5611604565b34801561087357600080fd5b50610339610882366004612199565b61160a565b34801561089357600080fd5b5061036f6108a236600461217d565b611638565b3480156108b357600080fd5b506103f56116a9565b3390565b60006001600160e01b0319821663780e9d6360e01b14806108e557506108e5826116af565b90505b919050565b6108f56108bc565b6001600160a01b0316610906611390565b6001600160a01b0316146109355760405162461bcd60e51b815260040161092c906129fe565b60405180910390fd5b60198054911515600160a01b0260ff60a01b19909216919091179055565b60606000805461096290612c4c565b80601f016020809104026020016040519081016040528092919081815260200182805461098e90612c4c565b80156109db5780601f106109b0576101008083540402835291602001916109db565b820191906000526020600020905b8154815290600101906020018083116109be57829003601f168201915b5050505050905090565b60006109f0826116ef565b610a0c5760405162461bcd60e51b815260040161092c906129b2565b506000908152600460205260409020546001600160a01b031690565b6000610a33826111a7565b9050806001600160a01b0316836001600160a01b03161415610a675760405162461bcd60e51b815260040161092c90612acb565b806001600160a01b0316610a796108bc565b6001600160a01b03161480610a955750610a95816108826108bc565b610ab15760405162461bcd60e51b815260040161092c9061288d565b610abb838361170c565b505050565b60155481565b60125481565b60085490565b6001600160a01b0381166000908152600d6020526040902054610b075760405162461bcd60e51b815260040161092c90612674565b6000600c5447610b179190612bbe565b6001600160a01b0383166000908152600e6020908152604080832054600b54600d909352908320549394509192610b4e9085612bea565b610b589190612bd6565b610b629190612c09565b905080610b815760405162461bcd60e51b815260040161092c90612815565b6001600160a01b0383166000908152600e6020526040902054610ba5908290612bbe565b6001600160a01b0384166000908152600e6020526040902055600c54610bcc908290612bbe565b600c55610bd9838261177a565b7fdf20fd1e76bc69d672e4814fafb2c449bba3a5369d8359adf9e05e6fde87b0568382604051610c0a9291906124a2565b60405180910390a1505050565b60145481565b610c2e610c286108bc565b82611816565b610c4a5760405162461bcd60e51b815260040161092c90612b0c565b610abb83838361189b565b60175481565b6000610c668361127f565b8210610c845760405162461bcd60e51b815260040161092c9061255a565b506001600160a01b03919091166000908152600660209081526040808320938352929052205490565b610cb56108bc565b6001600160a01b0316610cc6611390565b6001600160a01b031614610cec5760405162461bcd60e51b815260040161092c906129fe565b6001600160a01b03166000908152601a60205260409020805460ff19169055565b6000610d17610acc565b601954909150600160a01b900460ff1615610d3157600080fd5b336000908152601b602052604090205460ff1615610d615760405162461bcd60e51b815260040161092c90612860565b600060155411610d7057600080fd5b610d8433610d7f836001612bbe565b6119c8565b336000908152601b60205260409020805460ff19166001908117909155601554610dae9190612c09565b60155550565b600b5490565b6000610dc4610acc565b601954909150600160a01b900460ff1615610dde57600080fd5b60008211610deb57600080fd5b601454821115610dfa57600080fd5b601854601754601354610e0d9190612c09565b610e179190612c09565b610e218383612bbe565b1115610e2c57600080fd5b610e34611390565b6001600160a01b0316336001600160a01b031614610e8257336000908152601a602052604090205460ff161515600114610e825781601254610e769190612bea565b341015610e8257600080fd5b60015b828111610eac57610e9a84610d7f8385612bbe565b80610ea481612c87565b915050610e85565b50505050565b610abb838383604051806020016040528060008152506114aa565b610ed56108bc565b6001600160a01b0316610ee6611390565b6001600160a01b031614610f0c5760405162461bcd60e51b815260040161092c906129fe565b6000610f16610acc565b905060008211610f2557600080fd5b600082601654610f359190612c09565b1015610f4057600080fd5b60015b828111610f6a57610f5884610d7f8385612bbe565b80610f6281612c87565b915050610f43565b5081601654610f799190612c09565b601655505050565b60606000610f8e8361127f565b905060008167ffffffffffffffff811115610fb957634e487b7160e01b600052604160045260246000fd5b604051908082528060200260200182016040528015610fe2578160200160208202803683370190505b50905060005b8281101561103757610ffa8582610c5b565b82828151811061101a57634e487b7160e01b600052603260045260246000fd5b60209081029190910101528061102f81612c87565b915050610fe8565b509392505050565b6110476108bc565b6001600160a01b0316611058611390565b6001600160a01b03161461107e5760405162461bcd60e51b815260040161092c906129fe565b601255565b61108b6108bc565b6001600160a01b031661109c611390565b6001600160a01b0316146110c25760405162461bcd60e51b815260040161092c906129fe565b6001600160a01b03166000908152601a60205260409020805460ff19166001179055565b60006110f0610acc565b821061110e5760405162461bcd60e51b815260040161092c90612b5d565b6008828154811061112f57634e487b7160e01b600052603260045260246000fd5b90600052602060002001549050919050565b6111496108bc565b6001600160a01b031661115a611390565b6001600160a01b0316146111805760405162461bcd60e51b815260040161092c906129fe565b8051611193906010906020840190612064565b5050565b601954600160a01b900460ff1681565b6000818152600260205260408120546001600160a01b0316806108e55760405162461bcd60e51b815260040161092c90612934565b601b6020526000908152604090205460ff1681565b601080546111fe90612c4c565b80601f016020809104026020016040519081016040528092919081815260200182805461122a90612c4c565b80156112775780601f1061124c57610100808354040283529160200191611277565b820191906000526020600020905b81548152906001019060200180831161125a57829003601f168201915b505050505081565b60006001600160a01b0382166112a75760405162461bcd60e51b815260040161092c906128ea565b506001600160a01b031660009081526003602052604090205490565b6112cb6108bc565b6001600160a01b03166112dc611390565b6001600160a01b0316146113025760405162461bcd60e51b815260040161092c906129fe565b61130c60006119e2565b565b6113166108bc565b6001600160a01b0316611327611390565b6001600160a01b03161461134d5760405162461bcd60e51b815260040161092c906129fe565b601455565b6000600f828154811061137557634e487b7160e01b600052603260045260246000fd5b6000918252602090912001546001600160a01b031692915050565b600a546001600160a01b031690565b60606001805461096290612c4c565b6001600160a01b03166000908152600e602052604090205490565b6113d16108bc565b6001600160a01b0316826001600160a01b031614156114025760405162461bcd60e51b815260040161092c906126fe565b806005600061140f6108bc565b6001600160a01b03908116825260208083019390935260409182016000908120918716808252919093529120805460ff1916921515929092179091556114536108bc565b6001600160a01b03167f17307eab39ab6107e8899845ad3d59bd9653f200f220920489ca2b5937696c318360405161148b919061253c565b60405180910390a35050565b6019546001600160a01b031681565b4790565b6114bb6114b56108bc565b83611816565b6114d75760405162461bcd60e51b815260040161092c90612b0c565b610eac84848484611a34565b60185481565b601180546111fe90612c4c565b6060611501826116ef565b61151d5760405162461bcd60e51b815260040161092c90612a7c565b6000611527611a67565b905060008151116115475760405180602001604052806000815250611575565b8061155184611a76565b6011604051602001611565939291906123c9565b6040516020818303038152906040525b9392505050565b6001600160a01b03166000908152600d602052604090205490565b60135481565b601a6020526000908152604090205460ff1681565b6115ba6108bc565b6001600160a01b03166115cb611390565b6001600160a01b0316146115f15760405162461bcd60e51b815260040161092c906129fe565b8051611193906011906020840190612064565b600c5490565b6001600160a01b03918216600090815260056020908152604080832093909416825291909152205460ff1690565b6116406108bc565b6001600160a01b0316611651611390565b6001600160a01b0316146116775760405162461bcd60e51b815260040161092c906129fe565b6001600160a01b03811661169d5760405162461bcd60e51b815260040161092c906125f7565b6116a6816119e2565b50565b60165481565b60006001600160e01b031982166380ac58cd60e01b14806116e057506001600160e01b03198216635b5e139f60e01b145b806108e557506108e582611b91565b6000908152600260205260409020546001600160a01b0316151590565b600081815260046020526040902080546001600160a01b0319166001600160a01b0384169081179091558190611741826111a7565b6001600160a01b03167f8c5be1e5ebec7d5bd14f71427d1e84f3dd0314c0f7b2291e5b200ac8c7c3b92560405160405180910390a45050565b8047101561179a5760405162461bcd60e51b815260040161092c90612792565b6000826001600160a01b0316826040516117b39061248b565b60006040518083038185875af1925050503d80600081146117f0576040519150601f19603f3d011682016040523d82523d6000602084013e6117f5565b606091505b5050905080610abb5760405162461bcd60e51b815260040161092c90612735565b6000611821826116ef565b61183d5760405162461bcd60e51b815260040161092c906127c9565b6000611848836111a7565b9050806001600160a01b0316846001600160a01b031614806118835750836001600160a01b0316611878846109e5565b6001600160a01b0316145b806118935750611893818561160a565b949350505050565b826001600160a01b03166118ae826111a7565b6001600160a01b0316146118d45760405162461bcd60e51b815260040161092c90612a33565b6001600160a01b0382166118fa5760405162461bcd60e51b815260040161092c906126ba565b611905838383611baa565b61191060008261170c565b6001600160a01b0383166000908152600360205260408120805460019290611939908490612c09565b90915550506001600160a01b0382166000908152600360205260408120805460019290611967908490612bbe565b909155505060008181526002602052604080822080546001600160a01b0319166001600160a01b0386811691821790925591518493918716917fddf252ad1be2c89b69c2b068fc378daa952ba7f163c4a11628f55a4df523b3ef91a4505050565b611193828260405180602001604052806000815250611c33565b600a80546001600160a01b038381166001600160a01b0319831681179093556040519116919082907f8be0079c531659141344cd1fd0a4f28419497f9722a3daafe3b4186f6b6457e090600090a35050565b611a3f84848461189b565b611a4b84848484611c66565b610eac5760405162461bcd60e51b815260040161092c906125a5565b60606010805461096290612c4c565b606081611a9b57506040805180820190915260018152600360fc1b60208201526108e8565b8160005b8115611ac55780611aaf81612c87565b9150611abe9050600a83612bd6565b9150611a9f565b60008167ffffffffffffffff811115611aee57634e487b7160e01b600052604160045260246000fd5b6040519080825280601f01601f191660200182016040528015611b18576020820181803683370190505b5090505b841561189357611b2d600183612c09565b9150611b3a600a86612ca2565b611b45906030612bbe565b60f81b818381518110611b6857634e487b7160e01b600052603260045260246000fd5b60200101906001600160f81b031916908160001a905350611b8a600a86612bd6565b9450611b1c565b6001600160e01b031981166301ffc9a760e01b14919050565b611bb5838383610abb565b6001600160a01b038316611bd157611bcc81611d81565b611bf4565b816001600160a01b0316836001600160a01b031614611bf457611bf48382611dc5565b6001600160a01b038216611c1057611c0b81611e62565b610abb565b826001600160a01b0316826001600160a01b031614610abb57610abb8282611f3b565b611c3d8383611f7f565b611c4a6000848484611c66565b610abb5760405162461bcd60e51b815260040161092c906125a5565b6000611c7a846001600160a01b031661205e565b15611d7657836001600160a01b031663150b7a02611c966108bc565b8786866040518563ffffffff1660e01b8152600401611cb894939291906124bb565b602060405180830381600087803b158015611cd257600080fd5b505af1925050508015611d02575060408051601f3d908101601f19168201909252611cff91810190612323565b60015b611d5c573d808015611d30576040519150601f19603f3d011682016040523d82523d6000602084013e611d35565b606091505b508051611d545760405162461bcd60e51b815260040161092c906125a5565b805181602001fd5b6001600160e01b031916630a85bd0160e11b149050611893565b506001949350505050565b600880546000838152600960205260408120829055600182018355919091527ff3f7a9fe364faab93b216da50a3214154f22a0a2b415b23a84c8169e8b636ee30155565b60006001611dd28461127f565b611ddc9190612c09565b600083815260076020526040902054909150808214611e2f576001600160a01b03841660009081526006602090815260408083208584528252808320548484528184208190558352600790915290208190555b5060009182526007602090815260408084208490556001600160a01b039094168352600681528383209183525290812055565b600854600090611e7490600190612c09565b60008381526009602052604081205460088054939450909284908110611eaa57634e487b7160e01b600052603260045260246000fd5b906000526020600020015490508060088381548110611ed957634e487b7160e01b600052603260045260246000fd5b6000918252602080832090910192909255828152600990915260408082208490558582528120556008805480611f1f57634e487b7160e01b600052603160045260246000fd5b6001900381819060005260206000200160009055905550505050565b6000611f468361127f565b6001600160a01b039093166000908152600660209081526040808320868452825280832085905593825260079052919091209190915550565b6001600160a01b038216611fa55760405162461bcd60e51b815260040161092c9061297d565b611fae816116ef565b15611fcb5760405162461bcd60e51b815260040161092c9061263d565b611fd760008383611baa565b6001600160a01b0382166000908152600360205260408120805460019290612000908490612bbe565b909155505060008181526002602052604080822080546001600160a01b0319166001600160a01b03861690811790915590518392907fddf252ad1be2c89b69c2b068fc378daa952ba7f163c4a11628f55a4df523b3ef908290a45050565b3b151590565b82805461207090612c4c565b90600052602060002090601f01602090048101928261209257600085556120d8565b82601f106120ab57805160ff19168380011785556120d8565b828001600101855582156120d8579182015b828111156120d85782518255916020019190600101906120bd565b506120e49291506120e8565b5090565b5b808211156120e457600081556001016120e9565b600067ffffffffffffffff8084111561211857612118612ce2565b604051601f8501601f19168101602001828111828210171561213c5761213c612ce2565b60405284815291508183850186101561215457600080fd5b8484602083013760006020868301015250509392505050565b803580151581146108e857600080fd5b60006020828403121561218e578081fd5b813561157581612cf8565b600080604083850312156121ab578081fd5b82356121b681612cf8565b915060208301356121c681612cf8565b809150509250929050565b6000806000606084860312156121e5578081fd5b83356121f081612cf8565b9250602084013561220081612cf8565b929592945050506040919091013590565b60008060008060808587031215612226578081fd5b843561223181612cf8565b9350602085013561224181612cf8565b925060408501359150606085013567ffffffffffffffff811115612263578182fd5b8501601f81018713612273578182fd5b612282878235602084016120fd565b91505092959194509250565b600080604083850312156122a0578182fd5b82356122ab81612cf8565b91506122b96020840161216d565b90509250929050565b600080604083850312156122d4578182fd5b82356122df81612cf8565b946020939093013593505050565b6000602082840312156122fe578081fd5b6115758261216d565b600060208284031215612318578081fd5b813561157581612d0d565b600060208284031215612334578081fd5b815161157581612d0d565b600060208284031215612350578081fd5b813567ffffffffffffffff811115612366578182fd5b8201601f81018413612376578182fd5b611893848235602084016120fd565b600060208284031215612396578081fd5b5035919050565b600081518084526123b5816020860160208601612c20565b601f01601f19169290920160200192915050565b6000845160206123dc8285838a01612c20565b8551918401916123ef8184848a01612c20565b855492019183906002810460018083168061240b57607f831692505b85831081141561242957634e487b7160e01b88526022600452602488fd5b80801561243d576001811461244e5761247a565b60ff1985168852838801955061247a565b6124578b612bb2565b895b858110156124725781548a820152908401908801612459565b505083880195505b50939b9a5050505050505050505050565b90565b6001600160a01b0391909116815260200190565b6001600160a01b03929092168252602082015260400190565b6001600160a01b03858116825284166020820152604081018390526080606082018190526000906124ee9083018461239d565b9695505050505050565b6020808252825182820181905260009190848201906040850190845b8181101561253057835183529284019291840191600101612514565b50909695505050505050565b901515815260200190565b600060208252611575602083018461239d565b6020808252602b908201527f455243373231456e756d657261626c653a206f776e657220696e646578206f7560408201526a74206f6620626f756e647360a81b606082015260800190565b60208082526032908201527f4552433732313a207472616e7366657220746f206e6f6e20455243373231526560408201527131b2b4bb32b91034b6b83632b6b2b73a32b960711b606082015260800190565b60208082526026908201527f4f776e61626c653a206e6577206f776e657220697320746865207a65726f206160408201526564647265737360d01b606082015260800190565b6020808252601c908201527f4552433732313a20746f6b656e20616c7265616479206d696e74656400000000604082015260600190565b60208082526026908201527f5061796d656e7453706c69747465723a206163636f756e7420686173206e6f2060408201526573686172657360d01b606082015260800190565b60208082526024908201527f4552433732313a207472616e7366657220746f20746865207a65726f206164646040820152637265737360e01b606082015260800190565b60208082526019908201527f4552433732313a20617070726f766520746f2063616c6c657200000000000000604082015260600190565b6020808252603a908201527f416464726573733a20756e61626c6520746f2073656e642076616c75652c207260408201527f6563697069656e74206d61792068617665207265766572746564000000000000606082015260800190565b6020808252601d908201527f416464726573733a20696e73756666696369656e742062616c616e6365000000604082015260600190565b6020808252602c908201527f4552433732313a206f70657261746f7220717565727920666f72206e6f6e657860408201526b34b9ba32b73a103a37b5b2b760a11b606082015260800190565b6020808252602b908201527f5061796d656e7453706c69747465723a206163636f756e74206973206e6f742060408201526a191d59481c185e5b595b9d60aa1b606082015260800190565b602080825260139082015272185b1c9958591e4819dbdd081d1a19481b999d606a1b604082015260600190565b60208082526038908201527f4552433732313a20617070726f76652063616c6c6572206973206e6f74206f7760408201527f6e6572206e6f7220617070726f76656420666f7220616c6c0000000000000000606082015260800190565b6020808252602a908201527f4552433732313a2062616c616e636520717565727920666f7220746865207a65604082015269726f206164647265737360b01b606082015260800190565b60208082526029908201527f4552433732313a206f776e657220717565727920666f72206e6f6e657869737460408201526832b73a103a37b5b2b760b91b606082015260800190565b6020808252818101527f4552433732313a206d696e7420746f20746865207a65726f2061646472657373604082015260600190565b6020808252602c908201527f4552433732313a20617070726f76656420717565727920666f72206e6f6e657860408201526b34b9ba32b73a103a37b5b2b760a11b606082015260800190565b6020808252818101527f4f776e61626c653a2063616c6c6572206973206e6f7420746865206f776e6572604082015260600190565b60208082526029908201527f4552433732313a207472616e73666572206f6620746f6b656e2074686174206960408201526839903737ba1037bbb760b91b606082015260800190565b6020808252602f908201527f4552433732314d657461646174613a2055524920717565727920666f72206e6f60408201526e3732bc34b9ba32b73a103a37b5b2b760891b606082015260800190565b60208082526021908201527f4552433732313a20617070726f76616c20746f2063757272656e74206f776e656040820152603960f91b606082015260800190565b60208082526031908201527f4552433732313a207472616e736665722063616c6c6572206973206e6f74206f6040820152701ddb995c881b9bdc88185c1c1c9bdd9959607a1b606082015260800190565b6020808252602c908201527f455243373231456e756d657261626c653a20676c6f62616c20696e646578206f60408201526b7574206f6620626f756e647360a01b606082015260800190565b90815260200190565b60009081526020902090565b60008219821115612bd157612bd1612cb6565b500190565b600082612be557612be5612ccc565b500490565b6000816000190483118215151615612c0457612c04612cb6565b500290565b600082821015612c1b57612c1b612cb6565b500390565b60005b83811015612c3b578181015183820152602001612c23565b83811115610eac5750506000910152565b600281046001821680612c6057607f821691505b60208210811415612c8157634e487b7160e01b600052602260045260246000fd5b50919050565b6000600019821415612c9b57612c9b612cb6565b5060010190565b600082612cb157612cb1612ccc565b500690565b634e487b7160e01b600052601160045260246000fd5b634e487b7160e01b600052601260045260246000fd5b634e487b7160e01b600052604160045260246000fd5b6001600160a01b03811681146116a657600080fd5b6001600160e01b0319811681146116a657600080fdfea2646970667358221220e76260b2b84a607ee1acded038d4b62b852854e999489cede5926f2c99bf8c7964736f6c63430008000033",
  "immutableReferences": {},
  "source": "// SPDX-License-Identifier: GPL-3.0\r\n\r\n// Created by HashLips\r\n// The Nerdy Coder Clones\r\n\r\npragma solidity ^0.8.0;\r\n\r\nimport \"@openzeppelin/contracts/token/ERC721/extensions/ERC721Enumerable.sol\";\r\nimport \"@openzeppelin/contracts/access/Ownable.sol\";\r\nimport \"@openzeppelin/contracts/finance/PaymentSplitter.sol\";\r\n\r\ncontract NFT is ERC721Enumerable, Ownable, PaymentSplitter {\r\n  using Strings for uint256;\r\n\r\n  string public baseURI;\r\n  string public baseExtension = \".json\";\r\n  uint256 public cost = 10 ether;\r\n  uint256 public maxSupply = 10000;\r\n  uint256 public maxMintAmount = 20;\r\n  uint256 public aidrop_amount = 1000;\r\n  uint256 public reserved = 500;\r\n  \r\n  uint256 public AIRDROP_AMOUNT = 1000;\r\n  uint256 public REVERSED = 500;\r\n  address payable public payments;\r\n\r\n\r\n  bool public paused = false;\r\n  mapping(address => bool) public whitelisted;\r\n  mapping (address => bool) public airdroppedList;\r\n  \r\n  constructor(\r\n    string memory _name,\r\n    string memory _symbol,\r\n    string memory _initBaseURI,\r\n    address[] memory _payees,\r\n    uint256[] memory _shares\r\n  ) ERC721(_name, _symbol) PaymentSplitter(_payees, _shares) payable {\r\n    setBaseURI(_initBaseURI);\r\n  }\r\n\r\n  // internal\r\n  function _baseURI() internal view virtual override returns (string memory) {\r\n    return baseURI;\r\n  }\r\n\r\n  // public\r\n  function mint(address _to, uint256 _mintAmount) public payable {\r\n    uint256 supply = totalSupply();\r\n    require(!paused);\r\n    require(_mintAmount > 0);\r\n    require(_mintAmount <= maxMintAmount);\r\n    require(supply + _mintAmount <= maxSupply - AIRDROP_AMOUNT - REVERSED);\r\n\r\n    if (msg.sender != owner()) {\r\n        if(whitelisted[msg.sender] != true) {\r\n          require(msg.value >= cost * _mintAmount);\r\n        }\r\n    }\r\n\r\n    for (uint256 i = 1; i <= _mintAmount; i++) {\r\n      _safeMint(_to, supply + i);\r\n    }\r\n  }\r\n  \r\n    // public\r\n  function airdrop() public {\r\n    uint256 supply = totalSupply();\r\n    require(!paused);\r\n    require(!airdroppedList[msg.sender], 'already got the nft');\r\n    require(aidrop_amount > 0);\r\n\r\n     _safeMint(msg.sender, supply + 1);\r\n     airdroppedList[msg.sender] = true;\r\n     aidrop_amount = aidrop_amount - 1;\r\n  }\r\n  \r\n      // public\r\n  function mint_by_team(address _to, uint256 _mintAmount) public onlyOwner {\r\n    uint256 supply = totalSupply();\r\n    require(_mintAmount > 0);\r\n    require(reserved - _mintAmount >= 0);\r\n\r\n    for (uint256 i = 1; i <= _mintAmount; i++) {\r\n      _safeMint(_to, supply + i);\r\n    }\r\n     reserved = reserved - _mintAmount;\r\n  }\r\n\r\n\r\n\r\n  function walletOfOwner(address _owner)\r\n    public\r\n    view\r\n    returns (uint256[] memory)\r\n  {\r\n    uint256 ownerTokenCount = balanceOf(_owner);\r\n    uint256[] memory tokenIds = new uint256[](ownerTokenCount);\r\n    for (uint256 i; i < ownerTokenCount; i++) {\r\n      tokenIds[i] = tokenOfOwnerByIndex(_owner, i);\r\n    }\r\n    return tokenIds;\r\n  }\r\n\r\n  function tokenURI(uint256 tokenId)\r\n    public\r\n    view\r\n    virtual\r\n    override\r\n    returns (string memory)\r\n  {\r\n    require(\r\n      _exists(tokenId),\r\n      \"ERC721Metadata: URI query for nonexistent token\"\r\n    );\r\n\r\n    string memory currentBaseURI = _baseURI();\r\n    return bytes(currentBaseURI).length > 0\r\n        ? string(abi.encodePacked(currentBaseURI, tokenId.toString(), baseExtension))\r\n        : \"\";\r\n  }\r\n\r\n  //only owner\r\n  function setCost(uint256 _newCost) public onlyOwner {\r\n    cost = _newCost;\r\n  }\r\n\r\n  function setmaxMintAmount(uint256 _newmaxMintAmount) public onlyOwner {\r\n    maxMintAmount = _newmaxMintAmount;\r\n  }\r\n\r\n  function setBaseURI(string memory _newBaseURI) public onlyOwner {\r\n    baseURI = _newBaseURI;\r\n  }\r\n\r\n  function setBaseExtension(string memory _newBaseExtension) public onlyOwner {\r\n    baseExtension = _newBaseExtension;\r\n  }\r\n\r\n  function pause(bool _state) public onlyOwner {\r\n    paused = _state;\r\n  }\r\n \r\n function whitelistUser(address _user) public onlyOwner {\r\n    whitelisted[_user] = true;\r\n  }\r\n \r\n  function removeWhitelistUser(address _user) public onlyOwner {\r\n    whitelisted[_user] = false;\r\n  }\r\n  \r\n  function balance () public view returns (uint256)  {\r\n   return address(this).balance;\r\n  }\r\n}",
  "sourcePath": "/Users/timcheng/personal/nft-project/nft_ipfs_minter/contracts/NFT.sol",
  "compiler": {
    "name": "solc",
    "version": "0.8.0+commit.c7dfd78e.Emscripten.clang"
  },
  "schemaVersion": "3.4.3",
  "updatedAt": "2021-11-16T17:41:36.784Z",
  "devdoc": {
    "kind": "dev",
    "methods": {
      "approve(address,uint256)": {
        "details": "See {IERC721-approve}."
      },
      "balanceOf(address)": {
        "details": "See {IERC721-balanceOf}."
      },
      "getApproved(uint256)": {
        "details": "See {IERC721-getApproved}."
      },
      "isApprovedForAll(address,address)": {
        "details": "See {IERC721-isApprovedForAll}."
      },
      "name()": {
        "details": "See {IERC721Metadata-name}."
      },
      "owner()": {
        "details": "Returns the address of the current owner."
      },
      "ownerOf(uint256)": {
        "details": "See {IERC721-ownerOf}."
      },
      "payee(uint256)": {
        "details": "Getter for the address of the payee number `index`."
      },
      "release(address)": {
        "details": "Triggers a transfer to `account` of the amount of Ether they are owed, according to their percentage of the total shares and their previous withdrawals."
      },
      "released(address)": {
        "details": "Getter for the amount of Ether already released to a payee."
      },
      "renounceOwnership()": {
        "details": "Leaves the contract without owner. It will not be possible to call `onlyOwner` functions anymore. Can only be called by the current owner. NOTE: Renouncing ownership will leave the contract without an owner, thereby removing any functionality that is only available to the owner."
      },
      "safeTransferFrom(address,address,uint256)": {
        "details": "See {IERC721-safeTransferFrom}."
      },
      "safeTransferFrom(address,address,uint256,bytes)": {
        "details": "See {IERC721-safeTransferFrom}."
      },
      "setApprovalForAll(address,bool)": {
        "details": "See {IERC721-setApprovalForAll}."
      },
      "shares(address)": {
        "details": "Getter for the amount of shares held by an account."
      },
      "supportsInterface(bytes4)": {
        "details": "See {IERC165-supportsInterface}."
      },
      "symbol()": {
        "details": "See {IERC721Metadata-symbol}."
      },
      "tokenByIndex(uint256)": {
        "details": "See {IERC721Enumerable-tokenByIndex}."
      },
      "tokenOfOwnerByIndex(address,uint256)": {
        "details": "See {IERC721Enumerable-tokenOfOwnerByIndex}."
      },
      "tokenURI(uint256)": {
        "details": "See {IERC721Metadata-tokenURI}."
      },
      "totalReleased()": {
        "details": "Getter for the total amount of Ether already released."
      },
      "totalShares()": {
        "details": "Getter for the total shares held by payees."
      },
      "totalSupply()": {
        "details": "See {IERC721Enumerable-totalSupply}."
      },
      "transferFrom(address,address,uint256)": {
        "details": "See {IERC721-transferFrom}."
      },
      "transferOwnership(address)": {
        "details": "Transfers ownership of the contract to a new account (`newOwner`). Can only be called by the current owner."
      }
    },
    "version": 1
  },
  "userdoc": {
    "kind": "user",
    "methods": {},
    "version": 1
  },
  "db": {
    "callBytecode": {
      "id": "0xbff5b87e0e4a783ccc32f29682d521ce3504393eef2d1e101b79c91a87f25b87"
    },
    "createBytecode": {
      "id": "0x23de6a73eacb9dd857c8e577d580f792aac8804107ab0d8639ec35715b8f1627"
    },
    "contract": {
      "id": "0xf357785a0a14020a844b5c263878aa749fd6bffb5e6e48c9e0c3e74d921c4fe8"
    }
  }
}